:100000000C946B000C9493000C9493000C9493004C
:100010000C9493000C9493000C9493000C94930014
:100020000C9493000C9493000C9493000C94930004
:100030000C9493000C9493000C9493000C949300F4
:100040000C9424150C9493000C9433160C94930088
:100050000C9493000C94C4000C9493000C949300A3
:100060000C9493000C9493007C3C3E5E2B3D3F2F00
:100070005B5D3B2C2A225C0000000000240027006E
:100080002A0000000000250028002B0000000000CE
:1000900023002600290004040404040404040202CA
:1000A00002020202030303030303010204081020F7
:1000B0004080010204081020010204081020000002
:1000C0000007000201000003040600000000000019
:1000D00000008104D21611241FBECFEFD8E0DEBF8E
:1000E000CDBF11E0A0E0B1E0EAE6F6E302C0059082
:1000F0000D92A83AB107D9F714E0A8EAB1E001C01F
:100100001D92A93BB107E1F710E0C6EDD0E004C0B5
:100110002297FE010E942F1BC23DD107C9F70E9402
:100120000C170C94331B0C940000FB01DC0104C081
:100130008D910190801921F441505040C8F7881BDF
:10014000990B089590917C008F70907F892B8093FC
:100150007C0080917A00877F80937A0080917A007A
:10016000806480937A0001C0000080917A0084FF4F
:10017000FBCF2091780040917900942F80E030E00F
:10018000282B392BC901089578941F920F920FB62E
:100190000F9211242F933F934F938F939F938091AE
:1001A000780040917900342F20E090E0282B392B03
:1001B00030937401209373019F918F914F913F91E0
:1001C0002F910F900FBE0F901F9018958EE00E94F8
:1001D000A2008EE00E94A2008EE00E94A2008EE0AB
:1001E0000E94A2008EE00E94A2008EE00E94A20067
:1001F0008EE00E94A2008EE00E94A2008EE00E948B
:10020000A2008EE00E94A200A0E0B0E0BC01CD01FF
:100210000E94D3199B01AC016DEC7CEC8CE894E45A
:100220000E943A196093A8017093A9018093AA01D2
:100230009093AB018091A8019091A901A091AA018E
:10024000B091AB01BC01CD01089517B818B880E496
:1002500080937C00EAE7F0E080E88083808187601B
:1002600080838FEF9FEF90937401809373010E94BE
:10027000E60008952F923F924F925F926F927F9285
:100280008F929F92AF92BF92CF92DF92EF92FF92A6
:100290000F931F93CF93DF933B014C012A01C0E0E2
:1002A000D0E080E9282E81E0382E79C085E061E039
:1002B0000E94DB15C401B3010E94D3195B016C01DC
:1002C00020E030E04AE755E40E94891A7B018C0166
:1002D00020E030E040E85FE30E94361988231CF4F8
:1002E00061E070E022C0C801B70120E03FEF4FE7B6
:1002F00057E40E94851A1816A4F4C601B50120E03F
:1003000030E040E251E40E94891A0E94A71905C01A
:10031000C1010197F1F76150704061157105C1F796
:1003200007C0C801B7010E94A719CB010197F1F7D7
:1003300085E060E00E94DB15C801B70120E030E0F5
:1003400040E85FE30E94361988231CF461E070E006
:1003500022C0C801B70120E03FEF4FE757E40E94F9
:10036000851A1816A4F4C601B50120E030E040E279
:1003700051E40E94891A0E94A71905C0C101019782
:10038000F1F76150704061157105C1F707C0C801F0
:10039000B7010E94A719CB010197F1F72196C41567
:1003A000D5050CF483CFDF91CF911F910F91FF9072
:1003B000EF90DF90CF90BF90AF909F908F907F9005
:1003C0006F905F904F903F902F900895CF93DF9361
:1003D000EC010E94CF030E94D3192EE530ED42EBD1
:1003E00050E50E94851A181664F4CE010E94DD03C0
:1003F00062E370E080E090E04AE050E00E943A0161
:10040000F7CFDF91CF9108952F923F924F925F9255
:100410006F927F928F929F92AF92BF92CF92DF9214
:10042000EF92FF920F931F93DF93CF93CDB7DEB779
:100430002C970FB6F894DEBF0FBECDBF0DE711E0CD
:100440001A830983CE0105966CEA71E040E051E021
:100450002BE10E948D051C830B83CE0103960E9425
:10046000E6018E010F5F1F4FC8010E94D803882349
:1004700009F44DC1C8016CE071E00E944A170E9466
:10048000E600AB01BC01C80122E030E00E94CE18BA
:10049000C8016AE00E943F040E946C157B018C0138
:1004A000CC24DD2488249924540118861F826624D4
:1004B0006A94762C30C080917C00807F80937C0091
:1004C00080917A00886080937A0080917A008064BD
:1004D00080937A00709274016092730101C00000F1
:1004E00080917301909174018F5F9F4FC1F3C6019A
:1004F000A0E0B0E0880E991EAA1EBB1E8091730179
:1005000090917401C0907301D09074018F8198858F
:10051000019698878F830E946C156E197F09800B56
:10052000910B6E3171058105910528F20E946C15C1
:100530008091A8019091A901A091AA01B091AB016D
:1005400089879A87AB87BC870E946C152B013C0179
:1005500000E010E0CC24DD2476012224332431C0D5
:1005600080917C00807F816080937C0080917A0004
:10057000886080937A0080917A00806480937A000A
:10058000AFEFBFEFB0937401A093730101C00000FF
:1005900080917301909174018F5F9F4FC1F3C801E7
:1005A000A0E0B0E0C80ED91EEA1EFB1E80917301C8
:1005B0009091740100917301109174010894211CB1
:1005C000311C0E946C1564197509860997096E31F2
:1005D00071058105910520F20E946C158F81988527
:1005E0009C0140E050E0C501B4010E940B1BCA0110
:1005F000B9010E94D31929853A854B855C850E94F3
:10060000891A20E030E040E85AE30E94891AAB01E1
:10061000BC018E010F5F1F4FC80122E030E00E9435
:10062000CE18C80164E271E00E944A17910140E0CF
:1006300050E0C701B6010E940B1BCA01B9010E941C
:10064000D319AB01BC01C80122E030E00E94CE18F2
:10065000C8016DE271E00E944A17C801B501A4010A
:100660002AE030E00E94EC17C80166E371E00E94C6
:100670004A17C801B701A6012AE030E00E94EC1732
:10068000C80163E471E00E944A17C8016F81788550
:100690004AE050E00E94FB17C8016FE471E00E943D
:1006A0004A17C801B1014AE050E00E94FB17C80197
:1006B00060E671E00E944A17C8016AE00E943F04A8
:1006C000C8010E94E203C8010E94DD0364E670E0F5
:1006D00080E090E041E050E00E943A012C960FB695
:1006E000F894DEBF0FBECDBFCF91DF911F910F9168
:1006F000FF90EF90DF90CF90BF90AF909F908F9042
:100700007F906F905F904F903F902F90089562E39D
:1007100070E080E090E044E650E00E943A01F7CFBC
:100720008CEA91E061E00E94A604882349F462E328
:1007300070E080E090E044E650E00E943A01F7CF9C
:1007400008958AE061E00E94B51585E061E00E94AD
:10075000B51581E061E00E94B515789468EE73E00C
:1007600080E090E041E050E00E943A010E94900356
:100770000E94250168EE73E080E090E041E050E0E7
:100780000E943A010895209104023091050280915F
:10079000FB019091FC01281B390BC9010895609160
:1007A000040270910502809106029091070208955B
:1007B0008091F601811181E0089582EF91E00E941D
:1007C000030A089582EF91E00E94BB090895DF9328
:1007D000CF930F92CDB7DEB782EF91E0BE016F5F8E
:1007E0007F4F41E050E00E94DA0A019719F02FEFA5
:1007F0003FEF03C08981282F30E0C9010F90CF91CE
:10080000DF9108951F93DF93CF930F92CDB7DEB79B
:1008100082EF91E0BE016F5F7F4F41E050E00E94A8
:10082000DA0A019719F02FEF3FEF02C08981282FD4
:10083000122F2F3F81F04091FB015091FC016091FC
:10084000FD017091FE01415050406040704082EFC8
:1008500091E00E94F508212F332727FD3095C9012B
:100860000F90CF91DF911F91089582EF91E00E9448
:100870001F0D089582EF91E00E94D80E089582EF37
:1008800091E00E94E30E08950F931F93CF93DF939F
:100890008C01FB01C081D181FC01EC0FFD1F808127
:1008A0008F3209F4219698012C0F3D1FA0E0B0E093
:1008B0000BC0FA01EA0FFB1F8083119621962F5F70
:1008C0003F4FAC30B10531F0F90180818F3211F02A
:1008D000882379F7A40FB51F1C92F801EC0FFD1FB8
:1008E00080818F3209F42196FB01D183C083C00F30
:1008F000D11F8881811181E0DF91CF911F910F91EC
:1009000008951092B1011092B2011092B5011092A7
:10091000B70182E090E0A0E0B0E08093B80190934E
:10092000B901A093BA01B093BB011092CF018FE837
:1009300091E09093D7018093D6011092DA019093C1
:10094000F3018093F2011092F60108950F931F9323
:10095000CF93DF93EC01462F61E00E94E1078823EB
:10096000D1F08E01045F1F4FC801BE0141E00E941B
:10097000F910882339F4C801BE0140E00E94F91043
:10098000882349F0CE018A96B8010E94390C882349
:1009900019F081E001C080E0DF91CF911F910F91AC
:1009A0000895EF92FF920F931F93CF93DF93FC0173
:1009B000DB01442311F481E01FC0E90186E4E82E45
:1009C000F12CE20EF31E89010E591F4FC701BF0122
:1009D000AD01F80120810E94580FF80180819181BA
:1009E0004B9749F4C85ADF4F488159816A817B810E
:1009F000C7010E94F50880E0DF91CF911F910F9110
:100A0000FF90EF9008952F923F924F925F926F92D6
:100A10007F928F929F92BF92CF92DF92EF92FF923E
:100A20000F931F93DF93CF93CDB7DEB7C754D0405A
:100A30000FB6F894DEBF0FBECDBF1C017B012A01AB
:100A400039018FE891E0998B888B1C8A9DA78CA730
:100A500018AA1A8219828B0120E1C22ED12CCC0E49
:100A6000DD1E93E0892E912C8C0E9D1E03C0C801C3
:100A700086016C01C101BE016F5F7F4FA4010E941E
:100A80004404B82E40E0882309F441E0C801B401D1
:100A90009301F2010995882339F40E151F0519F108
:100AA000C8010E94030A1FC0BB20A9F0C601B801FB
:100AB000A40121E00E94580FB82E0E151F0519F051
:100AC000C8010E94030ABB2071F00E151F0579F6BC
:100AD000CE018C96CDCF0E151F0519F0C8010E94CE
:100AE000030A81E001C080E0C95BDF4F0FB6F894D4
:100AF000DEBF0FBECDBFCF91DF911F910F91FF9051
:100B0000EF90DF90CF90BF909F908F907F906F90ED
:100B10005F904F903F902F9008950F931F938C01FB
:100B2000DB01CA01FB01EE59FF4F20831182665D94
:100B30007F4F41ED54E09D010E9403058DE791E058
:100B4000F80191838083C8011F910F910895FC01E2
:100B5000673020F086E1858380E00895262F30E01D
:100B600060FD02C0663019F48DB58E7F02C08DB570
:100B700081608DBD8CB58C7F8CBD4CB522FD02C0D3
:100B800090E001C092E036952795822F8170842BEA
:100B9000892B8CBD81E00895FF920F931F93CF9313
:100BA000DF938B010E946C15EB01FF24FA94FEBCCD
:100BB0000DB407FEFDCF8EB58F3F11F481E008C064
:100BC0000E946C156C1B7D0B6017710780F380E031
:100BD000DF91CF911F910F91FF900895FC018481C7
:100BE00060E00E94DB150895FC01848161E00E94B1
:100BF000DB150895DC016EBDFA0120E030E00DB494
:100C000007FEFDCF80818EBD0DB407FEFDCF818133
:100C10008EBD2E5F3F4F329682E02030380779F745
:100C20000DB407FEFDCF8FEF8EBD0DB407FEFDCFD7
:100C30008FEF8EBD0DB407FEFDCF8FEF8EBD0DB4CF
:100C400007FEFDCF8EB51A968C931A978F7185305B
:100C500011F481E0089581E115968C931597CD01EB
:100C60000E94F40580E00895FF920F931F93CF93A5
:100C7000DF93EC010E946C158B01FF24FA9409C0EC
:100C80000E946C15601B710B6D52714010F08FE06B
:100C90000DC0FEBC0DB407FEFDCF8EB58A878F3F19
:100CA00079F38E3F11F481E006C08DE08D83CE0193
:100CB0000E94F40580E0DF91CF911F910F91FF908A
:100CC0000895CF93DF93EC018E818823D1F08FEFCD
:100CD0008EBD2F8138854FEF04C00DB407FEFDCFC8
:100CE0004EBD2F5F3F4FC901019781509240A8F33D
:100CF00038872F830DB407FEFDCFCE010E94F40587
:100D00001E82DF91CF910895DF92EF92FF920F93B1
:100D10001F93CF93DF93EC01D62E79018A010E94B5
:100D20006106CE010E94EE05CE016CE271E00E94E8
:100D3000CC058D2D80648EBD0DB407FEFDCF28E15E
:100D400030E0D801C701022E04C0B695A79597954B
:100D500087950A94D2F78EBD0DB407FEFDCF2850BB
:100D600030408FEF283F380761F7DD2011F485E927
:100D700006C088E0D81611F487E801C08FEF8EBD59
:100D80000DB407FEFDCF90E02FEF2EBD0DB407FE92
:100D9000FDCF8EB587FF02C09150B9F78A87DF91EA
:100DA000CF911F910F91FF90EF90DF900895CF9218
:100DB000DF92EF92FF920F931F93CF93DF93EC019B
:100DC0007A018B016901411551056105710511F425
:100DD00082E137C08B85833039F029E0EE0CFF1CAF
:100DE000001F111F2A95D1F7CE0168E1A8019701D4
:100DF0000E948406882311F084E023C0CE016EEFA8
:100E0000A6010E94FA058823E9F0CE0168E572E0A8
:100E10000E94CC05882311F485E113C0CE016DE05A
:100E200020E030E040E050E00E948406882341F456
:100E30008FEF8EBD0DB407FEFDCF8EB5882379F000
:100E400084E18D83CE010E94F40580E0DF91CF9193
:100E50001F910F91FF90EF90DF90CF900895CE01FA
:100E60000E94F40581E0F2CF8F929F92AF92BF92E1
:100E7000CF92DF92EF92FF920F931F93CF93DF9366
:100E8000EC015A016B0149010115110509F47BC000
:100E9000C801820F931F8150924008F06FC08E816D
:100EA000882371F088819981AA81BB8148175907ED
:100EB0006A077B0729F48F8198858816990618F5AB
:100EC000A882B982CA82DB828B85833039F069E0DF
:100ED000AA0CBB1CCC1CDD1C6A95D1F7CE0161E1CC
:100EE000A60195010E948406882319F083E08D8372
:100EF00045C0CE010E943406882309F43FC01886FD
:100F00001F8281E08E838FEF8EBD8F8198852FEFBA
:100F100005C00DB407FEFDCF2EBD019688159905BD
:100F2000C0F398878F83D801119720E030E09FEFBE
:100F30000BC00DB407FEFDCF8EB5F701E20FF31F16
:100F400080839EBD2F5F3F4F2A173B0790F30DB460
:100F500007FEFDCF8EB5AE0DBF1D8C932F8138855A
:100F6000200F311F38872F838985882319F020505F
:100F7000324048F0CE010E94610605C0CE010E94B9
:100F8000F40580E001C081E0DF91CF911F910F91C6
:100F9000FF90EF90DF90CF90BF90AF909F908F9099
:100FA0000895EF92FF920F931F93790120E030E0B4
:100FB00000E012E00E9434071F910F91FF90EF9024
:100FC0000895BF92CF92DF92EF92FF920F931F93FB
:100FD000CF93DF93EC01B62E1B8619861E821D82ED
:100FE0004C830E946C156B018C8161E00E94B515E9
:100FF000CE010E94F4058CE060E00E94B5158BE004
:1010000061E00E94B5158DE061E00E94B5158AE0AF
:1010100061E00E94B5158AE061E00E94DB1583E57E
:101020008CBD8DB58E7F8DBD80E09FEF9EBD0DB4D4
:1010300007FEFDCF8F5F8A30C9F7CE010E94EE0513
:1010400009C00E946C156C197D09615D774010F034
:1010500081E05EC0CE0160E020E030E040E050E0A2
:101060000E948406182F8A87813059F7CE0168E0E4
:101070002AEA31E040E050E00E94840682FF02C08C
:101080001B8711C080E02FEF2EBD0DB407FEFDCFF2
:101090009EB58F5F8430C1F79A879A3A11F082E04B
:1010A00037C082E08B878B85823021F0EE24FF24CD
:1010B00087010FC0E12CF12C012DF0E41F2F09C096
:1010C0000E946C156C197D09615D774010F088E015
:1010D0001FC0CE0167E320E030E040E050E00E9416
:1010E0008406CE0169E2A80197010E9484068A87DE
:1010F000882331F78B85823031F5CE016AE320E019
:1011000030E040E050E00E948406882339F086E019
:101110008D83CE010E94F40580E01CC08FEF8EBD50
:101120000DB407FEFDCF8EB5807C803C11F483E0CA
:101130008B8780E09FEF9EBD0DB407FEFDCF2EB5DF
:101140008F5F8330C1F7CE010E94F405CE016B2D75
:101150000E94A705DF91CF911F910F91FF90EF9013
:10116000DF90CF90BF900895CF93DF93EC01DB0128
:1011700080E090E020E2FD01E80FF91F2083019656
:101180008B309105C1F757E040E021C02E3219F0B5
:1011900088E690E007C05A3019F15AE048E017C0DD
:1011A0003217F1F0FC01019634913323C9F754173B
:1011B000B8F02132A8F02F3798F4822F81568A3167
:1011C00008F42052FD01E40FF11D20834F5F2991A7
:1011D0002223E1F690E08C91803219F091E001C079
:1011E00090E0892FDF91CF9108956F927F928F9237
:1011F0009F92AF92BF92CF92DF92EF92FF920F93A6
:101200001F93CF93DF93EC017A018B012C81222372
:1012100009F480C08A899B89AC89BD8984179507A8
:10122000A607B70708F476C085C0E114F1040105EC
:10123000110549F41D821E821F82188619861A869E
:101240001B861C8665C029853A854B855C85EA8DA1
:10125000FB8D858590E009962150304040405040FC
:1012600039014A01082E04C09694879477946794B4
:101270000A94D2F72F5F3F4F4F4F5F4F0894E1081A
:10128000F108010911095701680104C0D694C794F7
:10129000B794A7948A95D2F70894E11CF11C011D1C
:1012A000111DA614B704C804D90428F0211531056E
:1012B0004105510549F48E899F89A88DB98D8D838B
:1012C0009E83AF83B88716C0A618B708C808D90888
:1012D00011C04D815E816F8178858A8D9B8D9401CF
:1012E0000E94DA120894A108B108C108D108882325
:1012F00031F410C085E0882E912C8C0E9D1EA11417
:10130000B104C104D10429F7E986FA860B871C874A
:1013100081E001C080E0DF91CF911F910F91FF909C
:10132000EF90DF90CF90BF90AF909F908F907F9085
:101330006F900895223009F078CFE6CFCF93DF93F6
:10134000EC01462F6D857E858F8598890E94BE10A1
:10135000882319F420E030E00AC08989282F30E082
:1013600095E0220F331F9A95E1F72E5E3D4FC9019C
:10137000DF91CF9108950F931F93CF93DF938C014B
:10138000FC0184818823C9F1838187FF33C0C801B0
:1013900061E00E949E09EC01009779F1F8018481D7
:1013A000823040F482899389A489B5898C8F9D8F7E
:1013B000AE8FBF8FF80186899789A08DB18D9B8FE5
:1013C0008A8FCD01AA27BB279D8B8C8BE0911002C1
:1013D000F0911102309751F0BE016A5E7F4FCE014D
:1013E00048960995888D998D9B8B8A8BF80183810E
:1013F0008F7783830E945F1001C080E0DF91CF91DF
:101400001F910F910895CF93DF93EC010E94BB09C8
:10141000882311F01C8281E0DF91CF9108956F92B3
:101420007F928F929F92AF92BF92CF92DF92EF9274
:10143000FF920F931F93DF93CF9300D000D0CDB7CF
:10144000DEB77C015A016B01DC0114968C91149774
:10145000813009F08FC013968C9181FF8BC09EC0A4
:101460000097A105B10511F481E085C0F701618401
:10147000728483849484C701B601A5010E94F50893
:10148000882309F477C0D7015A968D919C915B9778
:10149000A114B104C104D10489F456964D915D9113
:1014A0006D917C9159970E944D13882309F462C075
:1014B000F701168A178A108E118E3DC0D701159636
:1014C0004D915D916D917C9118979E012F5F3F4FDB
:1014D0000E94DA12882309F44DC0D7015A96ED9183
:1014E000FC915B9749815A816B817C81878980312E
:1014F00029F088EF9FEFAFEFBFE004C088EF9FEFC8
:10150000A0E0B0E0481759076A077B07A0F4CF01B5
:101510000E944D13882371F1F7014581568167813F
:101520007085828D938D0FEF1FEF2FEF3FE00E94AC
:101530003E128823F9F0D7015296AD92BD92CD921A
:10154000DC92559713968C911397806813968C9321
:10155000C7010E94BB09882369F0B601A5016A147E
:101560007B048C049D0410F4B401A301C7010E9404
:10157000F50801C080E00F900F900F900F90CF9171
:10158000DF911F910F91FF90EF90DF90CF90BF9070
:10159000AF909F908F907F906F900895F701828910
:1015A0009389A489B58984179507A607B70708F01A
:1015B00057CFE0CF2F923F924F925F926F927F92E0
:1015C0008F929F92AF92BF92CF92DF92EF92FF9253
:1015D0000F931F93CF93DF93EC012A018C81882313
:1015E00009F4C6C08B8180FFC3C0D8C025014E1846
:1015F0005F084B0175E0272E312C2C0E3D1E320169
:10160000B1C029853A854B855C856FEFA62E61E0D8
:10161000B62EA222B3228C8179018A0199E0169517
:101620000795F794E7949A95D1F7EA8DFB8D823070
:1016300049F4428D538D648D758D4E0D5F1D601F75
:10164000711F3FC0D480DA94DE20A114B104D9F414
:10165000DD20C9F4211531054105510549F48E8974
:101660009F89A88DB98D8D839E83AF83B8870BC06A
:101670004D815E816F817885CF0191010E94DA12E0
:10168000882309F475C0EA8DFB8D4D815E816F81E1
:1016900078854250504060407040058404C0440F3B
:1016A000551F661F771F0A94D2F786859785A089F4
:1016B000B189480F591F6A1F7B1F4D0D511D611DB8
:1016C000711D80E092E08A199B09630186159705D8
:1016D00008F46C018B8186FD06C080E0C81682E0AC
:1016E000D80609F073C08091750190917601A091A0
:1016F0007701B0917801481759076A077B0709F409
:1017000065C08091120490911304950186017401C3
:101710000E943407882361F18C0C9D1C12C0950136
:101720002E5E3D4FA9014C0D5D1DD401F90102C093
:1017300081918D93E417F507D9F7E21BF30B8E0E19
:101740009F1E960140E050E089859A85AB85BC8557
:10175000820F931FA41FB51F89879A87AB87BC8709
:101760006C187D086114710409F04BCFA20102C00E
:101770004FEF5FEFCA01DF91CF911F910F91FF9063
:10178000EF90DF90CF90BF90AF909F908F907F9021
:101790006F905F904F903F902F900895AA88BB88DC
:1017A000CC88DD88E984FA840B851C859A0140E0A9
:1017B00050E0D601C5018E199F09A00BB10B82170D
:1017C0009307A407B50708F411CF13CFCB01BA01D3
:1017D00040E00E94BE10882309F0A1CFC9CFCF926C
:1017E000DF92EF92FF920F931F93DF93CF930F92AD
:1017F000CDB7DEB76C01FC018481823070F0E184EA
:10180000F28403851485C601BE016F5F7F4F41E0FE
:1018100050E00E94DA0A019769F020E030E0C90147
:101820000F90CF91DF911F910F91FF90EF90DF907C
:10183000CF900895F60181859285A385B4854F9652
:10184000A11DB11D81879287A387B487F5E0169506
:101850000795F794E794FA95D1F78E2D8F70282F7E
:1018600030E0E5E0220F331FEA95E1F72E5E3D4FB1
:10187000D6CF0F931F93CF93DF93EC018B018C8115
:10188000882309F041C0FB0187898031B1F482E0EF
:101890008C831E8A1F8A188E198E808D918DA0E0F0
:1018A000B0E045E0880F991FAA1FBB1F4A95D1F7EA
:1018B0008A8B9B8BAC8BBD8B15C0803229F583E066
:1018C0008C83FB01428D538D648D758D4E8B5F8BA8
:1018D000688F798F9E012E5E3F4FC8010E94A6132C
:1018E000882391F01B8F0A8F81E08B831D821E82DB
:1018F0001F82188619861A861B861C861D861E86E0
:101900001F86188A198A01C080E0DF91CF911F914C
:101910000F9108951F93CF93DF93EC01142FE62FBF
:10192000F0E075E0EE0FFF1F7A95E1F7EE5EFD4FF8
:101930008385817121F0842F827409F054C0698BF2
:101940008091750190917601A0917701B091780115
:101950008D879E87AF87B88B84899589A0E0B0E09A
:10196000BC0155274427828D938DA0E0B0E0482B21
:10197000592B6A2B7B2B4E8B5F8B688F798F8385DE
:1019800090E088719070009751F4848D958DA68DAC
:10199000B78D8A8B9B8BAC8BBD8B81E00CC0409745
:1019A00011F59E012E5E3F4F8A8D9B8D0E94A613DE
:1019B0008823C9F084E08C83812F8F708B831D82F4
:1019C0001E821F82188619861A861B861C8616FDA3
:1019D00002C081E009C0CE0140E050E060E070E06C
:1019E0000E940F0A01C080E0DF91CF911F910895FE
:1019F000CF93DF93EC019C012B5F3F4F8A8D9B8D32
:101A000041E050E060E070E00E9415148823A1F0EE
:101A10008E899F89A88DB98D0097A105B10559F4CC
:101A20008D819E81AF81B8858E8B9F8BA88FB98F5A
:101A30008B8180688B8381E0DF91CF9108952F9215
:101A40003F924F925F927F928F929F92AF92BF92FE
:101A5000CF92DF92EF92FF920F931F93DF93CF937A
:101A600000D000D000D0CDB7DEB76C01162F072F05
:101A70005E834D83DC0114968C911497813009F0BC
:101A800075C113968C9181FF71C18FC1F601428996
:101A900053896489758981859285A385B485841766
:101AA0009507A607B70731F0C6010E94F5088823FD
:101AB00009F45CC1812F902F9C0129012D803E806B
:101AC00019C1D6015A96ED91FC915B97DA01C901D3
:101AD00019E0B695A795979587951A95D1F77480D3
:101AE0007A9478227FEF872E71E0972E82229322BC
:101AF000772009F050C08114910409F04CC0D60140
:101B000015964D915D916D917C91189741155105F8
:101B10006105710581F456968D919D910D90BC9152
:101B2000A02D0097A105B10559F1F6018583968393
:101B3000A783B08730C0CF019E012F5F3F4F0E9427
:101B4000DA12882319F440E050E016C129813A8165
:101B50004B815C81D6015A96ED91FC915B97878908
:101B6000803129F088EF9FEFAFEFBFE004C088EF2E
:101B70009FEFA0E0B0E0281739074A075B0730F075
:101B8000C6010E94F80C882331F4F0C0F6012583C9
:101B900036834783508780E092E088199909510184
:101BA0008215930508F45C01D6015A96ED91FC91DB
:101BB0005B971596ED90FD900D911C9118978EEF07
:101BC0009FEFAFEFBFEFE80EF91E0A1F1B1F058442
:101BD00004C0EE0CFF1C001F111F0A94D2F786856B
:101BE0009785A089B189E80EF91E0A1F1B1FE70C13
:101BF000F11C011D111D90E0A91692E0B90651F5E6
:101C00008091750190917601A0917701B091780152
:101C10008E159F05A007B10761F48FEF9FEFAFEF1F
:101C2000BFEF8093750190937601A0937701B093F5
:101C300078018091120490911304B801A7019201D8
:101C40000E94D706882309F491C0A0E0B2E04A0EB2
:101C50005B1E3EC08114910409F5F6012185328591
:101C60004385548582899389A489B58928173907C2
:101C70004A075B0798F00E945F10882309F476C03A
:101C8000E0927501F092760100937701109378014C
:101C90008091140481608093140408C0C801B701C6
:101CA00041E00E94BE10882309F460C094012E5EBA
:101CB0003D4FA9014A0D5B1DD201F90102C08D9172
:101CC0008193E417F507D9F7E21BF30B4E0E5F1E65
:101CD0002A183B08950140E050E0F6018185928585
:101CE000A385B485820F931FA41FB51F8187928798
:101CF000A387B487D60119962D913D914D915C91A2
:101D00001C972114310409F0DCCE52968D919D91DF
:101D10000D90BC91A02D82179307A407B50748F436
:101D2000F601228B338B448B558B838180688383B0
:101D300011C08091100290911102892B59F08D8170
:101D40009E81892B39F0D60113968C911397806868
:101D500013968C93F601838183FF05C0C6010E9410
:101D6000BB09882319F04D815E8106C081E0D60150
:101D700012968C934FEF5FEFCA0126960FB6F89438
:101D8000DEBF0FBECDBFCF91DF911F910F91FF90AE
:101D9000EF90DF90CF90BF90AF909F908F907F900B
:101DA0005F904F903F902F90089582FD6FCE82CE2E
:101DB000DB010D900020E9F71197A61BB70BAD01D1
:101DC0000E941F0D0895DF93CF930F92CDB7DEB71A
:101DD0006983BE016F5F7F4F41E050E00E941F0D9D
:101DE0000F90CF91DF910895DF92EF92FF920F93C2
:101DF0001F93CF93DF93EC010E94F80C882309F422
:101E00004EC0EA8DFB8DED80FE800F8118858EEF30
:101E10009FEFAFEFBFEFE80EF91E0A1F1B1F0584EF
:101E200004C0EE0CFF1C001F111F0A94D2F7868518
:101E30009785A089B189E80EF91E0A1F1B1FD4805F
:101E40000894E108F108010911090BC0C801B701A4
:101E50006D0D711D811D911D0E949A108823F9F04E
:101E6000DA94DD2099F7EA8DFB8D20E032E040E046
:101E700050E0058404C0220F331F441F551F0A94ED
:101E8000D2F78A899B89AC89BD89820F931FA41FD1
:101E9000B51F8A8B9B8BAC8BBD8B81E001C080E032
:101EA000DF91CF911F910F91FF90EF90DF900895F8
:101EB0006F927F928F929F92AF92BF92CF92DF925A
:101EC000EF92FF920F931F93DF93CF93CDB7DEB7BF
:101ED0002B970FB6F894DEBF0FBECDBF5C016B0130
:101EE000822EDC0114968C91882309F0D2C0CA019D
:101EF0008E010F5F1F4FB8010E94B408882309F4B8
:101F0000C8C0F601828D938DD5015B969C938E930C
:101F10005A971582168217821086D60119961D923D
:101F20001D921D921C921C979924380141C0C60134
:101F30000E94EF0BFC01009709F4ABC085E01695F9
:101F40000795F794E7948A95D1F71E2D1F7080812D
:101F5000882311F0853ED1F4992091F4D501519652
:101F60001C93519720917501309176014091770132
:101F7000509178011D962D933D934D935C9350970E
:101F80008081882399F49924939421C0C301BF01CF
:101F90004BE050E00E949500009751F4882D80732B
:101FA000803309F476C0C501612F6FC099249394E2
:101FB000F601E184F2840385148582899389A489DA
:101FC000B589E816F9060A071B0708F4B0CF882D73
:101FD0008271823109F05DC0992041F0C50161E054
:101FE0000E949E098C01009789F453C0D601149673
:101FF0008C91823009F44DC0C6010E94F40E8823F2
:1020000009F447C0F501118A02E112E080E2D8012B
:102010001D928A95E9F7D801FE0131968BE0019077
:102020000D928150E1F7E0911002F091110230978A
:1020300039F0B801625F7F4FC8014096099509C029
:1020400081E298E2F801918B808B80E098E097879D
:102050008687D80150968D919C91519753969C9369
:102060008E93529759969C938E9358971E968D9166
:102070009C911F9757969C938E9356970E945F1042
:10208000882339F0C501F5016189482D0E948A0C29
:1020900001C080E02B960FB6F894DEBF0FBECDBF17
:1020A000CF91DF911F910F91FF90EF90DF90CF9034
:1020B000BF90AF909F908F907F906F900895809188
:1020C0001404882399F14091750150917601609133
:1020D000770170917801809112049091130422E1AC
:1020E00032E00E94D706882319F1409115045091DF
:1020F000160460911704709118044115510561058B
:10210000710591F0809112049091130422E132E064
:102110000E94D706882361F01092150410921604CD
:1021200010921704109218041092140481E008957C
:1021300080E00895EF92FF920F931F937B018C0133
:102140000E945F108823A9F0E2E1F2E0119284E09E
:10215000E231F807D9F7E0927501F0927601009329
:1021600077011093780180911404816080931404A6
:1021700081E01F910F91FF90EF900895DF92EF9211
:10218000FF920F931F937B018C01D42E80917501D8
:1021900090917601A0917701B09178018E159F05FD
:1021A000A007B107C1F00E945F108823D9F0809189
:1021B000120490911304B801A70122E132E00E94B9
:1021C000D107882379F0E0927501F09276010093AF
:1021D000770110937801809114048D298093140461
:1021E00081E001C080E01F910F91FF90EF90DF90A0
:1021F00008958F929F92AF92BF92CF92DF92EF920B
:10220000FF920F931F93CF93DF936C01142F709362
:10221000130460931204442321F488249924540164
:1022200040C0453008F01CC160E070E080E090E004
:1022300040E00E94BE10882309F412C1C12FD0E0F3
:102240002197FE0174E0EE0FFF1F7A95E1F7EE5E35
:10225000FD4FE254FE4F8081EE5BF14090E08F77BE
:102260009070892B09F0FCC0E653FE4F808191816C
:10227000A281B38184369105A105B10508F4F0C0AF
:1022800064E0CC0FDD1F6A95E1F7C852DC4F88800F
:102290009980AA80BB8081149104A104B10409F43F
:1022A000DFC0C501B40140E00E94BE10882309F4DC
:1022B000D7C080911D0290911E028050924009F07B
:1022C000CFC020912202222309F4CAC080912002AB
:1022D00090912102892B09F4C3C080911F028823A9
:1022E00009F4BEC0F601228B80911F0284831586FB
:1022F00061E070E007C04F5FF6014587415048300C
:1023000008F0AEC0F6014585848190E09B01042E63
:1023100002C0220F331F0A94E2F78217930759F77E
:1023200020912802309129022115310519F040E051
:1023300050E008C0209136023091370240913802B7
:1023400050913902F6012583368347835087E09008
:102350002002F090210200E010E0E80CF91C0A1DB8
:102360001B1DE38AF48A058B168B809123029091C2
:102370002402918F808F6091220270E080E090E0D3
:102380000E94EC1A6E0D7F1D801F911FF601628F57
:10239000738F848F958F209123023091240255E012
:1023A000220F331F5A95E1F721503E4F232F332739
:1023B000269540E050E0260F371F481F591F2687FB
:1023C0003787408B518B8091250290912602009790
:1023D00019F0A0E0B0E008C0809132029091330281
:1023E000A0913402B091350285017401E21AF30A1A
:1023F000040B150BA8019701280F391F4A1F5B1FFB
:10240000F601058404C056954795379527950A949B
:10241000D2F72187328743875487253FFFE03F0764
:10242000F0E04F07F0E05F0710F48CE006C0255F96
:102430003F4F4040504028F480E1F601878B81E017
:1024400010C080913E0290913F02A0914002B09155
:102450004102F601828F938FA48FB58F80E2EECF79
:1024600080E0DF91CF911F910F91FF90EF90DF906F
:10247000CF90BF90AF909F908F9008954F925F92B2
:102480006F927F928F929F92AF92BF92CF92DF9284
:10249000EF92FF920F931F93CF93DF93EC016A01AA
:1024A0007B0128013901423051056105710508F4AD
:1024B0006FC089859A85AB85BC850196A11DB11D2C
:1024C00084179507A607B70708F462C02B893C89D3
:1024D0004D895E898F89803129F499278F2D7E2D32
:1024E0006D2D09C0C701B60117E0969587957795C0
:1024F00067951A95D1F74B015C01820E931EA41EBD
:10250000B51E8091750190917601A0917701B091EF
:10251000780188169906AA06BB0639F0C501B401F0
:1025200040E00E94BE10882399F18F89803149F4E0
:10253000F601F070EE0FFF1FEE5EFD4F51824082FC
:102540000DC0F601EF77F070EE0FFF1FEE0FFF1FCB
:10255000EE5EFD4F4082518262827382809114044C
:102560008160809314048A89823080F08D819E81FD
:10257000AF81B885880E991EAA1EBB1E80921504D5
:1025800090921604A0921704B092180481E001C042
:1025900080E0DF91CF911F910F91FF90EF90DF903E
:1025A000CF90BF90AF909F908F907F906F905F90F3
:1025B0004F900895CF92DF92EF92FF920F931F9367
:1025C000CF93DF93EC017A018B01690189859A85AC
:1025D000AB85BC850196A11DB11D84179507A60783
:1025E000B70708F450C02B893C894D895E898F89D3
:1025F000803129F49927812F702F6F2D09C0C801D0
:10260000B701E7E09695879577956795EA95D1F7B5
:10261000260F371F481F591F809175019091760131
:10262000A0917701B0917801281739074A075B0715
:1026300039F0CA01B90140E00E94BE10882319F1A7
:102640008F89803159F4F701F070EE0FFF1FEE5EB5
:10265000FD4F80819181A0E0B0E00EC0F701EF77DF
:10266000F070EE0FFF1FEE0FFF1FEE5EFD4F80813B
:102670009181A281B381BF70F60180839183A2838F
:10268000B38381E001C080E0DF91CF911F910F9172
:10269000FF90EF90DF90CF900895AF92BF92CF92CE
:1026A000DF92EF92FF920F931F93DF93CF9300D0AF
:1026B00000D0CDB7DEB76C017A018B0182E090E0EB
:1026C000A0E0B0E0F60180839183A283B3835E0132
:1026D0000894A11CB11CC601B801A70195010E9474
:1026E000DA12882319F1C601B801A70100E010E051
:1026F00020E030E00E943E128823C1F0E980FA8099
:102700000B811C81F6018789803129F088EF9FEFCA
:10271000AFEFBFE004C088EF9FEFA0E0B0E0E816A5
:10272000F9060A071B07B8F281E001C080E00F90AC
:102730000F900F900F90CF91DF911F910F91FF900D
:10274000EF90DF90CF90BF90AF9008954F925F923F
:102750006F927F928F929F92AF92BF92CF92DF92B1
:10276000EF92FF920F931F93DF93CF9300D000D08F
:10277000CDB7DEB76C0149835A836B837C83390103
:10278000EE24FF2487012E010894411C511C812C4A
:10279000A2E09A2EA12CB12C49815A816B817C81B7
:1027A000C60192010E94DA12882351F1D501C401B9
:1027B000F601058404C0880F991FAA1FBB1F0A9445
:1027C000D2F7E80EF91E0A1F1B1F29813A814B819F
:1027D0005C818789803129F088EF9FEFAFEFBFE000
:1027E00004C088EF9FEFA0E0B0E0281739074A0740
:1027F0005B0790F2F301E082F1820283138381E0B0
:102800000F900F900F900F90CF91DF911F910F912C
:10281000FF90EF90DF90CF90BF90AF909F908F9000
:102820007F906F905F904F9008952F923F924F92BC
:102830005F926F927F928F929F92AF92BF92CF9250
:10284000DF92EF92FF920F931F93DF93CF93CDB759
:10285000DEB72F970FB6F894DEBF0FBECDBF1C01B9
:102860004A875B876C877D873F872E87D9010D91CB
:102870001D912D913C91011511052105310549F05E
:10288000480159010894811C911CA11CB11C198696
:1028900010C0FC0180809180A280B38019868A8557
:1028A0009B85AC85BD850197A105B10511F491E02B
:1028B0009987D10119968D919D910D90BC91A02D74
:1028C0000196A11DB11D8D839E83AF83B8877501CD
:1028D00064014424552432018E010F5F1F4FF10122
:1028E00081859285A385B485481659066A067B06BC
:1028F00008F090C08D819E81AF81B8858C159D05B3
:10290000AE05BF0550F482E0C82ED12CE12CF12C8D
:10291000B2E08B2E912CA12CB12CC101B701A601E4
:1029200098010E94DA12882309F474C089819A817F
:10293000AB81BC81A70196012F5F3F4F4F4F5F4F87
:102940000097A105B10519F049015A010DC02819D8
:1029500039094A095B098A859B85AC85BD8528179D
:1029600039074A075B0759F00894411C511C611C48
:10297000711C0894C11CD11CE11CF11CB0CFC10119
:10298000A601B7010FEF1FEF2FEF3FE00E943E12AD
:10299000882399F43FC02601370108944108510863
:1029A00061087108C101B301A201970186010E946B
:1029B0003E12882379F1730162018C149D04AE04E8
:1029C000BF0448F3AE85BF854D915D916D917C91BB
:1029D000411551056105710539F0C1019501840169
:1029E0000E943E128823B1F0EE85FF85808291829D
:1029F000A282B382F985FF2359F00894811C911CAF
:102A0000A11CB11CD1018D929D92AD92BC921397E5
:102A100081E001C080E02F960FB6F894DEBF0FBEB4
:102A2000CDBFCF91DF911F910F91FF90EF90DF907D
:102A3000CF90BF90AF909F908F907F906F905F905E
:102A40004F903F902F9008951F920F920FB60F92C4
:102A500011242F933F938F939F93AF93BF938091B4
:102A60001D0490911E04A0911F04B0912004309188
:102A700021040196A11DB11D232F2D5F2D3720F0BC
:102A80002D570196A11DB11D2093210480931D0493
:102A900090931E04A0931F04B09320048091190406
:102AA00090911A04A0911B04B0911C040196A11DE1
:102AB000B11D8093190490931A04A0931B04B09342
:102AC0001C04BF91AF919F918F913F912F910F90D7
:102AD0000FBE0F901F9018958FB7F89420911D048A
:102AE00030911E0440911F04509120048FBFB90102
:102AF000CA010895789484B5826084BD84B58160EC
:102B000084BD85B5826085BD85B5816085BDEEE6F5
:102B1000F0E0808181608083E1E8F0E010828081D4
:102B200082608083808181608083E0E8F0E0808142
:102B300081608083E1EBF0E0808184608083E0EB62
:102B4000F0E0808181608083EAE7F0E0808184604A
:102B500080838081826080838081816080838081A6
:102B6000806880831092C1000895482F50E0CA0108
:102B700086559F4FFC0124914A565F4FFA0184917C
:102B80008823C1F0E82FF0E0EE0FFF1FE858FF4F59
:102B9000A591B491662341F49FB7F8948C91209548
:102BA00082238C939FBF08959FB7F8948C91822BBA
:102BB0008C939FBF0895482F50E0CA0182549F4FC5
:102BC000FC012491CA0186559F4FFC0134914A565D
:102BD0005F4FFA019491992309F444C0222351F1E3
:102BE000233071F0243028F42130A1F0223011F587
:102BF00014C02630B1F02730C1F02430D9F404C01D
:102C0000809180008F7703C0809180008F7D8093BA
:102C1000800010C084B58F7702C084B58F7D84BDDD
:102C200009C08091B0008F7703C08091B0008F7D84
:102C30008093B000E92FF0E0EE0FFF1FEE57FF4F3B
:102C4000A591B491662341F49FB7F8948C91309587
:102C500083238C939FBF08959FB7F8948C91832B07
:102C60008C939FBF08951F920F920FB60F9211245D
:102C70002F933F934F938F939F93EF93FF934091A5
:102C8000C600E091A204F091A30431969F012F7732
:102C9000307031978091A4049091A50428173907CA
:102CA00039F0EE5DFB4F40833093A3042093A204E0
:102CB000FF91EF919F918F914F913F912F910F90A5
:102CC0000FBE0F901F901895DC011296ED91FC91AC
:102CD0001397E058FF4F2191319180819181281BFA
:102CE000390B2F773070C9010895DC011296ED91F0
:102CF000FC911397EE57FF4F208131819291829181
:102D0000E058F0408217930719F42FEF3FEF05C00A
:102D1000E20FF31F8081282F30E0C9010895DC0104
:102D20001296ED91FC911397DF01AE57BF4F2D9195
:102D30003C911197E058FF4F80819181E058F0401D
:102D40008217930719F42FEF3FEF0BC0E20FF31F29
:102D500080812F5F3F4F2F7730702D933C93282F2A
:102D600030E0C9010895DC011296ED91FC911397B2
:102D7000EE57FF4F80819181929382930895FC01D9
:102D8000A085B18521898C9190E0022E02C0959595
:102D900087950A94E2F780FFF6CF0484F585E02D4D
:102DA0006083089589E991E09093A7048093A60435
:102DB00082E294E09093A9048093A80485EC90E0CB
:102DC0009093AB048093AA0484EC90E09093AD04BC
:102DD0008093AC0480EC90E09093AF048093AE04B9
:102DE00081EC90E09093B1048093B00486EC90E085
:102DF0009093B3048093B20484E08093B40483E09E
:102E00008093B50487E08093B60485E08093B7048F
:102E100081E08093B80408950E947A150E94A1036E
:102E20000E940402FDCF0F931F93CF93DF938C0179
:102E3000EB0109C02196D801ED91FC910190F08140
:102E4000E02DC801099568816623A1F7DF91CF9134
:102E50001F910F910895EF92FF920F931F93CF93BD
:102E6000DF938C017B01EA010CC0D7016D917D01DC
:102E7000D801ED91FC910190F081E02DC8010995F8
:102E80002197209791F7DF91CF911F910F91FF909C
:102E9000EF900895DC01ED91FC910280F381E02D2B
:102EA000099508952F923F924F925F926F927F9271
:102EB0008F929F92AF92BF92CF92DF92EF92FF924A
:102EC0000F931F93DF93CF93CDB7DEB7A0970FB6C5
:102ED000F894DEBF0FBECDBF1C016A017B01411516
:102EE00051056105710549F440E350E060E070E090
:102EF00020E030E00E940C1856C088249924540128
:102F0000422E55246624772401E010E00C0F1D1F8B
:102F1000080D191DC701B601A30192010E940B1BE8
:102F2000F80160830894811C911CA11CB11CC7018D
:102F3000B601A30192010E940B1BC901DA016C01C9
:102F40007D01C114D104E104F104F1F681E0E82E21
:102F5000F12CEC0EFD1EE80CF91C3E010894611CDE
:102F6000711CD501C4010197A109B1096C01C818F0
:102F7000D90816C0F601EE0DFF1D40814A3010F44D
:102F8000405D01C0495C552747FD5095652F752F61
:102F9000C10120E030E00E940C180894E108F1081B
:102FA0006E147F0439F7A0960FB6F894DEBF0FBEFB
:102FB000CDBFCF91DF911F910F91FF90EF90DF90E8
:102FC000CF90BF90AF909F908F907F906F905F90C9
:102FD0004F903F902F900895DC012115310541F469
:102FE000ED91FC910190F081E02D642F09950895F9
:102FF0000E9452170895EF92FF920F931F939A0128
:103000007B0100E010E0B801A7010E94EC171F91BE
:103010000F91FF90EF900895EF92FF920F931F93FF
:10302000CF93DF93EC017A018B012115310541F437
:10303000E881F9810190F081E02D642F09951BC092
:103040002A303105B1F477FF10C04DE250E060E066
:1030500070E020E030E00E940C1810950095F0948C
:10306000E094E11CF11C011D111DCE01B801A70166
:103070002AE00E945217DF91CF911F910F91FF908C
:10308000EF9008959F92AF92BF92CF92DF92EF920E
:10309000FF920F931F93CF93DF93EC017A018B0183
:1030A000922ECB01BA0120E030E040E050E00E94D7
:1030B000361988236CF4CE014DE250E060E070E0F8
:1030C00020E030E00E940C1817FB109517F91095BE
:1030D00020E030E040E05FE3AA240BC0CA01B90160
:1030E00020E030E040E251E40E943A199B01AC013B
:1030F000A394A91498F3C801B7010E94D2185B01E8
:103100006C010E94A7197B018C01CE01B801A701B7
:103110002AE030E00E94EC17992029F0CE0161E707
:1031200071E00E944A17C801B7010E94D3199B01A0
:10313000AC01C601B5010E94D11822C020E030E0E8
:1031400040E251E40E94891A7B018C010E94A2197D
:103150005B016C01CC24B7FCC094DC2CCE01B60121
:10316000A5012AE030E00E940C18C601B5010E94BA
:10317000D5199B01AC01C801B7010E94D1189A94DE
:103180009920E1F6DF91CF911F910F91FF90EF9081
:10319000DF90CF90BF90AF909F9008950E9442180B
:1031A00008955058BB27AA270ED075C166D130F0BC
:1031B0006BD120F031F49F3F11F41EF45BC10EF48B
:1031C000E095E7FB51C1E92F77D180F3BA17620789
:1031D00073078407950718F071F49EF58FC10EF4FC
:1031E000E0950B2EBA2FA02D0B01B90190010C0117
:1031F000CA01A0011124FF27591B99F0593F50F42F
:10320000503E68F11A16F040A22F232F342F442786
:10321000585FF3CF469537952795A795F04053957E
:10322000C9F77EF41F16BA0B620B730B840BBAF04E
:103230009150A1F0FF0FBB1F661F771F881FC2F7B9
:103240000EC0BA0F621F731F841F48F487957795CD
:103250006795B795F7959E3F08F0B3CF9395880F84
:1032600008F09927EE0F979587950895D9D008F41F
:1032700081E008950CD00FC107D140F0FED030F0AE
:1032800021F45F3F19F0F0C0511139C1F3C014D1DE
:1032900098F39923C9F35523B1F3951B550BBB271D
:1032A000AA2762177307840738F09F5F5F4F220FCA
:1032B000331F441FAA1FA9F333D00E2E3AF0E0E8C3
:1032C00030D091505040E695001CCAF729D0FE2F0F
:1032D00027D0660F771F881FBB1F261737074807A1
:1032E000AB07B0E809F0BB0B802DBF01FF27935857
:1032F0005F4F2AF09E3F510568F0B6C000C15F3FA6
:10330000ECF3983EDCF3869577956795B795F7953E
:103310009F5FC9F7880F911D9695879597F9089536
:10332000E1E0660F771F881FBB1F621773078407D2
:10333000BA0720F0621B730B840BBA0BEE1F88F7E1
:10334000E095089504D06894B111D9C00895BCD017
:1033500088F09F5790F0B92F9927B751A0F0D1F07E
:10336000660F771F881F991F1AF0BA95C9F712C008
:10337000B13081F0C3D0B1E00895C0C0672F782F7D
:103380008827B85F39F0B93FCCF386957795679574
:10339000B395D9F73EF490958095709561957F4FE0
:1033A0008F4F9F4F0895E89409C097FB3EF4909586
:1033B0008095709561957F4F8F4F9F4F9923A9F00E
:1033C000F92F96E9BB279395F6958795779567959D
:1033D000B795F111F8CFFAF4BB0F11F460FF1BC0E1
:1033E0006F5F7F4F8F4F9F4F16C0882311F096E974
:1033F00011C0772321F09EE8872F762F05C0662322
:1034000071F096E8862F70E060E02AF09A95660FDA
:10341000771F881FDAF7880F9695879597F9089593
:10342000990F0008550FAA0BE0E8FEEF16161706D5
:10343000E807F907C0F012161306E407F50798F03D
:10344000621B730B840B950B39F40A2661F0232B56
:10345000242B252B21F408950A2609F4A140A695D2
:103460008FEF811D811D089597F99F6780E870E0B7
:1034700060E008959FEF80EC089500240A941616EA
:10348000170618060906089500240A941216130652
:10349000140605060895092E0394000C11F48823E0
:1034A00052F0BB0F40F4BF2B11F460FF04C06F5FFC
:1034B0007F4F8F4F9F4F089557FD9058440F551FD2
:1034C00059F05F3F71F04795880F97FB991F61F0A6
:1034D0009F3F79F087950895121613061406551F1D
:1034E000F2CF4695F1DF08C0161617061806991F89
:1034F000F1CF86957105610508940895E894BB277E
:1035000066277727CB0197F908958ADF08F48FEFB4
:1035100008950BD0C0CFB1DF28F0B6DF18F09523A7
:1035200009F0A2CFA7CF1124EACFC6DFA0F3959F61
:10353000D1F3950F50E0551F629FF001729FBB279A
:10354000F00DB11D639FAA27F00DB11DAA1F649F46
:103550006627B00DA11D661F829F2227B00DA11DF9
:10356000621F739FB00DA11D621F839FA00D611D7F
:10357000221F749F3327A00D611D231F849F600DA0
:10358000211D822F762F6A2F11249F5750408AF0D9
:10359000E1F088234AF0EE0FFF1FBB1F661F771F65
:1035A000881F91505040A9F79E3F510570F05CCFA5
:1035B000A6CF5F3FECF3983EDCF386957795679551
:1035C000B795F795E7959F5FC1F7FE2B880F911D83
:1035D0009695879597F90895629FD001739FF001A2
:1035E000829FE00DF11D649FE00DF11D929FF00D93
:1035F000839FF00D749FF00D659FF00D9927729FCA
:10360000B00DE11DF91F639FB00DE11DF91FBD0154
:10361000CF0111240895A1E21A2EAA1BBB1BFD01A4
:103620000DC0AA1FBB1FEE1FFF1FA217B307E407A1
:10363000F50720F0A21BB30BE40BF50B661F771FF9
:10364000881F991F1A9469F76095709580959095D9
:103650009B01AC01BD01CF010895EE0FFF1F059046
:0A366000F491E02D0994F894FFCFD7
:10366A00646174616C6F672E747874005265666564
:10367A0072656E636520566F6C7461676520697345
:10368A003A202000205620524D533B200020412052
:10369A00524D533B2000206D656761566F6C747301
:1036AA003B2000206D656761416D70733B200020EF
:1036BA0073616D706C657320666F7220563B2000D3
:1036CA002073616D706C657320666F7220413B20B8
:1036DA00002E00FFFFFFFFFFFF000000003F043A3B
:1036EA00043504C303E7030204E20300000000E315
:1036FA000ED80E2B1700000000BF1613172B1764E5
:08370A00168F167516B31600A8
:00000001FF
