:100000000C946C000C9494000C9494000C94940048
:100010000C9494000C9494000C9494000C94940010
:100020000C9494000C9494000C9494000C94940000
:100030000C9494000C9494000C9494000C949400F0
:100040000C94D7150C9494000C94E6160C94940020
:100050000C9494000C94C5000C9494000C9494009F
:100060000C9494000C9494007C3C3E5E2B3D3F2FFE
:100070005B5D3B2C2A225C0000000000240027006E
:100080002A0000000000250028002B0000000000CE
:1000900023002600290004040404040404040202CA
:1000A00002020202030303030303010204081020F7
:1000B0004080010204081020010204081020000002
:1000C0000007000201000003040600000000000019
:1000D000000093013405851711241FBECFEFD8E02F
:1000E000DEBFCDBF12E0A0E0B1E0EAE9F8E302C074
:1000F00005900D92A432B107D9F715E0A4E2B2E061
:1001000001C01D92AB36B107E1F710E0C8EDD0E0B9
:1001100004C02297FE010E94471CC23DD107C9F7C7
:100120000E94BF170C944B1C0C940000FB01DC01D7
:1001300004C08D910190801921F441505040C8F7BE
:10014000881B990B089590917C008F70907F892B6C
:1001500080937C0080917A00877F80937A008091E1
:100160007A00806480937A0001C0000080917A0058
:1001700084FFFBCF2091780040917900942F80E09C
:1001800030E0282B392BC901089578941F920F92E3
:100190000FB60F9211242F933F934F938F939F93FA
:1001A0008091780040917900342F20E090E0282B56
:1001B000392B3093F1012093F0019F918F914F9152
:1001C0003F912F910F900FBE0F901F9018958EE0CA
:1001D0000E94A3008EE00E94A3008EE00E94A30074
:1001E0008EE00E94A3008EE00E94A3008EE00E9499
:1001F000A3008EE00E94A3008EE00E94A3008EE088
:100200000E94A3008EE00E94A300A0E0B0E0BC0129
:10021000CD010E94861A9B01AC016DEC7CEC8CE850
:1002200094E40E94ED196093240270932502809358
:100230002602909327028091240290912502A0919A
:100240002602B0912702BC01CD01089517B818B855
:1002500080E480937C00EAE7F0E080E8808380819E
:10026000876080838FEF9FEF9093F1018093F0017F
:100270000E94E7000895FC0190917C0080818F70BE
:10028000907F892B80937C0080917A008860809396
:100290007A0080917A00806480937A008FEF9FEFDC
:1002A0009093F1018093F001828993890196938B59
:1002B000828B608D718D9B0140E050E08281938143
:1002C000A481B581820F931FA41FB51F82839383DE
:1002D000A483B583669F9001679F300D769F300D94
:1002E000112440E050E086819781A085B185820F7E
:1002F000931FA41FB51F86839783A087B18701C072
:1003000000008091F0019091F1018F5F9F4FC1F348
:100310008091F0019091F1018091F0019091F101B3
:10032000918F808F08958AEF91E0909329028093B6
:1003300028020895EF92FF920F931F93CF93DF93BC
:10034000EC010E941F167B018C0103C0CE010E94AC
:100350003B010E941F166E197F09800B910B6E31B5
:1003600071058105910590F30E941F166E197F0992
:10037000800B910B6C8B7D8B8E8B9F8BEA88FB881F
:1003800000E010E06A817B818C819D81A80197014A
:100390000E94231CCA01B9010E94861A6A877B87C2
:1003A0008C879D876E817F8188859985A8019701BB
:1003B0000E94231CCA01B9010E94861A0E94A31B35
:1003C0006E877F87888B998BDF91CF911F910F91DB
:1003D000FF90EF9008952F923F924F925F926F920D
:1003E0007F928F929F92AF92BF92CF92DF92EF92C5
:1003F000FF920F931F93CF93DF933B014C012A0190
:10040000C0E0D0E080E9282E81E0382E79C085E078
:1004100061E00E948E16C401B3010E94861A5B013E
:100420006C0120E030E04AE755E40E943C1B7B0170
:100430008C0120E030E040E85FE30E94E919882366
:100440001CF461E070E022C0C801B70120E03FEF7A
:100450004FE757E40E94381B1816A4F4C601B501F3
:1004600020E030E040E251E40E943C1B0E945A1A16
:1004700005C0C1010197F1F7615070406115710528
:10048000C1F707C0C801B7010E945A1ACB010197F2
:10049000F1F785E060E00E948E16C801B70120E008
:1004A00030E040E85FE30E94E91988231CF461E032
:1004B00070E022C0C801B70120E03FEF4FE757E4EA
:1004C0000E94381B1816A4F4C601B50120E030E0E4
:1004D00040E251E40E943C1B0E945A1A05C0C1012F
:1004E0000197F1F76150704061157105C1F707C0C0
:1004F000C801B7010E945A1ACB010197F1F7219662
:10050000C415D5050CF483CFDF91CF911F910F91C6
:10051000FF90EF90DF90CF90BF90AF909F908F9023
:100520007F906F905F904F903F902F900895DF9352
:10053000CF9300D0CDB7DEB7CE0101966EE572E065
:1005400040E051E02BE10E94400688E292E00E94E8
:100550008B04882309F497C188E292E06CE071E093
:100560000E94FD170E94E700AB01BC0188E292E007
:1005700022E030E00E94811988E292E06AE00E9465
:10058000F20410922B0210922A0210922C02109266
:100590002D0210922E0210922F0210923002109211
:1005A0003102109232021092330220E030E040E03B
:1005B00050E020933402309335024093360250933A
:1005C0003702209338023093390240933A02509315
:1005D0003B0210923D0210923C0210923E02109299
:1005E0003F02109240021092410210924302109278
:1005F000420281E090E09093450280934402109281
:10060000460210924702109248021092490210923C
:100610004A0210924B0210924C0210924D0220930B
:100620004E0230934F024093500250935102209358
:100630005202309353024093540250935502109249
:1006400057021092560210925802109259021092BC
:100650005A0210925B0210925D0210925C028AE2D2
:1006600092E00E949A0184E492E00E949A014091F3
:10067000340250913502609136027091370288E25F
:1006800092E022E030E00E94811988E292E064E288
:1006900071E00E94FD17409138025091390260913B
:1006A0003A0270913B0288E292E022E030E00E9440
:1006B000811988E292E061E371E00E94FD17609188
:1006C0003C0270913D0288E292E04AE050E00E94D4
:1006D000AE1888E292E06AE371E00E94FD17409153
:1006E0003E0250913F02609140027091410288E2C7
:1006F00092E02AE030E00E949F1888E292E06BE4EA
:1007000071E00E94FD1740912C0250912D026091E2
:100710002E0270912F0288E292E02AE030E00E94DF
:100720009F1888E292E061E671E00E94FD17409117
:10073000300250913102609132027091330288E2AE
:1007400092E02AE030E00E949F1888E292E067E79A
:1007500071E00E94FD1788E292E06AE00E94F204D4
:1007600040914E0250914F0260915002709151029F
:1007700088E292E022E030E00E94811988E292E073
:1007800069E871E00E94FD174091520250915302B6
:10079000609154027091550288E292E022E030E0CC
:1007A0000E94811988E292E066E971E00E94FD17DB
:1007B000609156027091570288E292E04AE050E060
:1007C0000E94AE1888E292E06FE971E00E94FD1786
:1007D000409158025091590260915A0270915B0207
:1007E00088E292E02AE030E00E949F1888E292E0DE
:1007F00060EB71E00E94FD17409146025091470264
:10080000609148027091490288E292E02AE030E06B
:100810000E949F1888E292E066EC71E00E94FD174A
:1008200040914A0250914B0260914C0270914D02EE
:1008300088E292E02AE030E00E949F1888E292E08D
:100840006CED71E00E94FD1788E292E06AE00E9480
:10085000F20488E292E06AE00E94F20488E292E008
:100860000E94950488E292E00E94900464E670E0A1
:1008700080E090E041E050E00E94EB010F900F908B
:10088000CF91DF91089562E370E080E090E044E66C
:1008900050E00E94EB01F7CF8EE592E063E00E940A
:1008A0005905882349F462E370E080E090E044E673
:1008B00050E00E94EB01F7CF08958AE061E00E94CA
:1008C000681685E061E00E94681683E061E00E949E
:1008D0006816789468EE73E080E090E041E050E0C4
:1008E0000E94EB010E944C040E94260168EE73E016
:1008F00080E090E041E050E00E94EB0108952091FB
:10090000B6023091B7028091AD029091AE02281BE1
:10091000390BC90108958091A802811181E00895E1
:1009200084EA92E00E94B60A089584EA92E00E9466
:100930006E0A0895DF93CF930F92CDB7DEB784EAA6
:1009400092E0BE016F5F7F4F41E050E00E948D0B4F
:10095000019719F02FEF3FEF03C08981282F30E076
:10096000C9010F90CF91DF9108951F93DF93CF932B
:100970000F92CDB7DEB784EA92E0BE016F5F7F4F82
:1009800041E050E00E948D0B019719F02FEF3FEFEF
:1009900002C08981282F122F2F3F81F04091AD0294
:1009A0005091AE026091AF027091B0024150504040
:1009B0006040704084EA92E00E94A809212F33270A
:1009C00027FD3095C9010F90CF91DF911F910895B8
:1009D00084EA92E00E94D20D089584EA92E00E9497
:1009E0008B0F089584EA92E00E94960F08950F936A
:1009F0001F93CF93DF938C01FB01C081D181FC0158
:100A0000EC0FFD1F80818F3209F4219698012C0F85
:100A10003D1FA0E0B0E00BC0FA01EA0FFB1F80838E
:100A2000119621962F5F3F4FAC30B10531F0F9019F
:100A300080818F3211F0882379F7A40FB51F1C92A3
:100A4000F801EC0FFD1F80818F3209F42196FB0124
:100A5000D183C083C00FD11F8881811181E0DF91D4
:100A6000CF911F910F91089510926302109264022A
:100A7000109267021092690282E090E0A0E0B0E07C
:100A800080936A0290936B02A0936C02B0936D0204
:100A9000109281028CE092E0909389028093880208
:100AA00010928C029093A5028093A4021092A80247
:100AB00008950F931F93CF93DF93EC01462F61E0CE
:100AC0000E9494088823D1F08E01045F1F4FC80153
:100AD000BE0141E00E94AC11882339F4C801BE0177
:100AE00040E00E94AC11882349F0CE018A96B801FB
:100AF0000E94EC0C882319F081E001C080E0DF91B6
:100B0000CF911F910F910895EF92FF920F931F9332
:100B1000CF93DF93FC01DB01442311F481E01FC07C
:100B2000E90186E4E82EF12CE20EF31E89010E594C
:100B30001F4FC701BF01AD01F80120810E940B10BA
:100B4000F801808191814B9749F4C85ADF4F488161
:100B500059816A817B81C7010E94A80980E0DF91E9
:100B6000CF911F910F91FF90EF9008952F923F9298
:100B70004F925F926F927F928F929F92BF92CF928D
:100B8000DF92EF92FF920F931F93DF93CF93CDB736
:100B9000DEB7C754D0400FB6F894DEBF0FBECDBF4E
:100BA0001C017B012A0139018CE092E0998B888B32
:100BB0001C8A9DA78CA718AA1A8219828B0120E192
:100BC000C22ED12CCC0EDD1E93E0892E912C8C0EE2
:100BD0009D1E03C0C80186016C01C101BE016F5F8B
:100BE0007F4FA4010E94F704B82E40E0882309F447
:100BF00041E0C801B4019301F2010995882339F459
:100C00000E151F0519F1C8010E94B60A1FC0BB20AE
:100C1000A9F0C601B801A40121E00E940B10B82E72
:100C20000E151F0519F0C8010E94B60ABB2071F00D
:100C30000E151F0579F6CE018C96CDCF0E151F052A
:100C400019F0C8010E94B60A81E001C080E0C95BCA
:100C5000DF4F0FB6F894DEBF0FBECDBFCF91DF914F
:100C60001F910F91FF90EF90DF90CF90BF909F90DA
:100C70008F907F906F905F904F903F902F9008954E
:100C80000F931F938C01DB01CA01FB01EE59FF4F4B
:100C900020831182665D7F4F44E855E09D010E94EC
:100CA000B6058AEF91E0F80191838083C8011F9116
:100CB0000F910895FC01673020F086E1858380E084
:100CC0000895262F30E060FD02C0663019F48DB51E
:100CD0008E7F02C08DB581608DBD8CB58C7F8CBD43
:100CE0004CB522FD02C090E001C092E036952795F8
:100CF000822F8170842B892B8CBD81E00895FF9217
:100D00000F931F93CF93DF938B010E941F16EB016C
:100D1000FF24FA94FEBC0DB407FEFDCF8EB58F3FC5
:100D200011F481E008C00E941F166C1B7D0B601738
:100D3000710780F380E0DF91CF911F910F91FF90B9
:100D40000895FC01848160E00E948E160895FC01E4
:100D5000848161E00E948E160895DC016EBDFA0167
:100D600020E030E00DB407FEFDCF80818EBD0DB4D4
:100D700007FEFDCF81818EBD2E5F3F4F329682E010
:100D80002030380779F70DB407FEFDCF8FEF8EBD09
:100D90000DB407FEFDCF8FEF8EBD0DB407FEFDCF66
:100DA0008FEF8EBD0DB407FEFDCF8EB51A968C93D6
:100DB0001A978F71853011F481E0089581E11596BD
:100DC0008C931597CD010E94A70680E00895FF92AD
:100DD0000F931F93CF93DF93EC010E941F168B019B
:100DE000FF24FA9409C00E941F16601B710B6D52FC
:100DF000714010F08FE00DC0FEBC0DB407FEFDCFBA
:100E00008EB58A878F3F79F38E3F11F481E006C05B
:100E10008DE08D83CE010E94A70680E0DF91CF9107
:100E20001F910F91FF900895CF93DF93EC018E8176
:100E30008823D1F08FEF8EBD2F8138854FEF04C00E
:100E40000DB407FEFDCF4EBD2F5F3F4FC901019787
:100E500081509240A8F338872F830DB407FEFDCF51
:100E6000CE010E94A7061E82DF91CF910895DF92E6
:100E7000EF92FF920F931F93CF93DF93EC01D62E47
:100E800079018A010E941407CE010E94A106CE01B9
:100E90006CE271E00E947F068D2D80648EBD0DB4E2
:100EA00007FEFDCF28E130E0D801C701022E04C0C3
:100EB000B695A795979587950A94D2F78EBD0DB4F0
:100EC00007FEFDCF285030408FEF283F380761F7ED
:100ED000DD2011F485E906C088E0D81611F487E812
:100EE00001C08FEF8EBD0DB407FEFDCF90E02FEF58
:100EF0002EBD0DB407FEFDCF8EB587FF02C0915009
:100F0000B9F78A87DF91CF911F910F91FF90EF90F2
:100F1000DF900895CF92DF92EF92FF920F931F938D
:100F2000CF93DF93EC017A018B01690141155105E3
:100F30006105710511F482E137C08B85833039F08A
:100F400029E0EE0CFF1C001F111F2A95D1F7CE01DE
:100F500068E1A80197010E943707882311F084E017
:100F600023C0CE016EEFA6010E94AD068823E9F0F2
:100F7000CE0168E572E00E947F06882311F485E1C6
:100F800013C0CE016DE020E030E040E050E00E9470
:100F90003707882341F48FEF8EBD0DB407FEFDCFD8
:100FA0008EB5882379F084E18D83CE010E94A70657
:100FB00080E0DF91CF911F910F91FF90EF90DF9034
:100FC000CF900895CE010E94A70681E0F2CF8F92C4
:100FD0009F92AF92BF92CF92DF92EF92FF920F93C8
:100FE0001F93CF93DF93EC015A016B014901011567
:100FF000110509F47BC0C801820F931F81509240F4
:1010000008F06FC08E81882371F088819981AA8150
:10101000BB81481759076A077B0729F48F81988598
:101020008816990618F5A882B982CA82DB828B8558
:10103000833039F069E0AA0CBB1CCC1CDD1C6A951E
:10104000D1F7CE0161E1A60195010E9437078823FF
:1010500019F083E08D8345C0CE010E94E706882306
:1010600009F43FC018861F8281E08E838FEF8EBD0A
:101070008F8198852FEF05C00DB407FEFDCF2EBDE3
:10108000019688159905C0F398878F83D801119729
:1010900020E030E09FEF0BC00DB407FEFDCF8EB512
:1010A000F701E20FF31F80839EBD2F5F3F4F2A178A
:1010B0003B0790F30DB407FEFDCF8EB5AE0DBF1DFF
:1010C0008C932F813885200F311F38872F83898596
:1010D000882319F02050324048F0CE010E941407B6
:1010E00005C0CE010E94A70680E001C081E0DF912B
:1010F000CF911F910F91FF90EF90DF90CF90BF9015
:10110000AF909F908F900895EF92FF920F931F934F
:10111000790120E030E000E012E00E94E7071F9133
:101120000F91FF90EF900895BF92CF92DF92EF92D0
:10113000FF920F931F93CF93DF93EC01B62E1B8684
:1011400019861E821D824C830E941F166B018C81A2
:1011500061E00E946816CE010E94A7068CE060E064
:101160000E9468168BE061E00E9468168DE061E0E5
:101170000E9468168AE061E00E9468168AE061E0D9
:101180000E948E1683E58CBD8DB58E7F8DBD80E06F
:101190009FEF9EBD0DB407FEFDCF8F5F8A30C9F76C
:1011A000CE010E94A10609C00E941F166C197D097C
:1011B000615D774010F081E05EC0CE0160E020E02C
:1011C00030E040E050E00E943707182F8A878130D6
:1011D00059F7CE0168E02AEA31E040E050E00E9491
:1011E000370782FF02C01B8711C080E02FEF2EBDA2
:1011F0000DB407FEFDCF9EB58F5F8430C1F79A878F
:101200009A3A11F082E037C082E08B878B8582307A
:1012100021F0EE24FF2487010FC0E12CF12C012DD9
:10122000F0E41F2F09C00E941F166C197D09615D33
:10123000774010F088E01FC0CE0167E320E030E087
:1012400040E050E00E943707CE0169E2A801970113
:101250000E9437078A87882331F78B85823031F5E2
:10126000CE016AE320E030E040E050E00E94370722
:10127000882339F086E08D83CE010E94A70680E0A6
:101280001CC08FEF8EBD0DB407FEFDCF8EB5807CE8
:10129000803C11F483E08B8780E09FEF9EBD0DB40E
:1012A00007FEFDCF2EB58F5F8330C1F7CE010E94C0
:1012B000A706CE016B2D0E945A06DF91CF911F9198
:1012C0000F91FF90EF90DF90CF90BF900895CF9354
:1012D000DF93EC01DB0180E090E020E2FD01E80F0C
:1012E000F91F208301968B309105C1F757E040E04C
:1012F00021C02E3219F088E690E007C05A3019F16B
:101300005AE048E017C03217F1F0FC010196349121
:101310003323C9F75417B8F02132A8F02F3798F4C7
:10132000822F81568A3108F42052FD01E40FF11D0D
:1013300020834F5F29912223E1F690E08C91803247
:1013400019F091E001C090E0892FDF91CF910895CD
:101350006F927F928F929F92AF92BF92CF92DF92C5
:10136000EF92FF920F931F93CF93DF93EC017A01DB
:101370008B012C81222309F480C08A899B89AC8946
:10138000BD8984179507A607B70708F476C085C0FE
:10139000E114F1040105110549F41D821E821F822A
:1013A000188619861A861B861C8665C029853A858B
:1013B0004B855C85EA8DFB8D858590E009962150F3
:1013C00030404040504039014A01082E04C09694F4
:1013D0008794779467940A94D2F72F5F3F4F4F4FCB
:1013E0005F4F0894E108F1080109110957016801EC
:1013F00004C0D694C794B794A7948A95D2F708945A
:10140000E11CF11C011D111DA614B704C804D90468
:1014100028F0211531054105510549F48E899F8930
:10142000A88DB98D8D839E83AF83B88716C0A6180B
:10143000B708C808D90811C04D815E816F817885D1
:101440008A8D9B8D94010E948D130894A108B10888
:10145000C108D108882331F410C085E0882E912C72
:101460008C0E9D1EA114B104C104D10429F7E98694
:10147000FA860B871C8781E001C080E0DF91CF9165
:101480001F910F91FF90EF90DF90CF90BF90AF90A2
:101490009F908F907F906F900895223009F078CFC1
:1014A000E6CFCF93DF93EC01462F6D857E858F8548
:1014B00098890E947111882319F420E030E00AC055
:1014C0008989282F30E095E0220F331F9A95E1F7A4
:1014D0002C533D4FC901DF91CF9108950F931F9376
:1014E000CF93DF938C01FC0184818823C9F1838130
:1014F00087FF33C0C80161E00E94510AEC010097E8
:1015000079F1F8018481823040F482899389A48939
:10151000B5898C8F9D8FAE8FBF8FF8018689978993
:10152000A08DB18D9B8F8A8FCD01AA27BB279D8B64
:101530008C8BE091C202F091C302309751F0BE0152
:101540006A5E7F4FCE0148960995888D998D9B8B59
:101550008A8BF80183818F7783830E94121101C0E7
:1015600080E0DF91CF911F910F910895CF93DF938A
:10157000EC010E946E0A882311F01C8281E0DF9149
:10158000CF9108956F927F928F929F92AF92BF9268
:10159000CF92DF92EF92FF920F931F93DF93CF933F
:1015A00000D000D0CDB7DEB77C015A016B01DC0161
:1015B00014968C911497813009F08FC013968C91FA
:1015C00081FF8BC09EC00097A105B10511F481E099
:1015D00085C0F7016184728483849484C701B60155
:1015E000A5010E94A809882309F477C0D7015A965B
:1015F0008D919C915B97A114B104C104D10489F42D
:1016000056964D915D916D917C9159970E94001471
:10161000882309F462C0F701168A178A108E118E8A
:101620003DC0D70115964D915D916D917C911897B4
:101630009E012F5F3F4F0E948D13882309F44DC0F8
:10164000D7015A96ED91FC915B9749815A816B8144
:101650007C818789803129F088EF9FEFAFEFBFE071
:1016600004C088EF9FEFA0E0B0E0481759076A0771
:101670007B07A0F4CF010E940014882371F1F701C9
:101680004581568167817085828D938D0FEF1FEFA5
:101690002FEF3FE00E94F1128823F9F0D701529614
:1016A000AD92BD92CD92DC92559713968C91139783
:1016B000806813968C93C7010E946E0A882369F094
:1016C000B601A5016A147B048C049D0410F4B401D6
:1016D000A301C7010E94A80901C080E00F900F90EC
:1016E0000F900F90CF91DF911F910F91FF90EF908E
:1016F000DF90CF90BF90AF909F908F907F906F9032
:101700000895F70182899389A489B589841795077B
:10171000A607B70708F057CFE0CF2F923F924F921E
:101720005F926F927F928F929F92AF92BF92CF9271
:10173000DF92EF92FF920F931F93CF93DF93EC0111
:101740002A018C81882309F4C6C08B8180FFC3C025
:10175000D8C025014E185F084B0175E0272E312CAB
:101760002C0E3D1E3201B1C029853A854B855C8522
:101770006FEFA62E61E0B62EA222B3228C817901F2
:101780008A0199E016950795F794E7949A95D1F711
:10179000EA8DFB8D823049F4428D538D648D758DB9
:1017A0004E0D5F1D601F711F3FC0D480DA94DE2094
:1017B000A114B104D9F4DD20C9F421153105410586
:1017C000510549F48E899F89A88DB98D8D839E839B
:1017D000AF83B8870BC04D815E816F817885CF0163
:1017E00091010E948D13882309F475C0EA8DFB8D49
:1017F0004D815E816F8178854250504060407040DD
:10180000058404C0440F551F661F771F0A94D2F742
:1018100086859785A089B189480F591F6A1F7B1F4C
:101820004D0D511D611D711D80E092E08A199B09CB
:1018300063018615970508F46C018B8186FD06C04F
:1018400080E0C81682E0D80609F073C08091F201EA
:101850009091F301A091F401B091F5014817590757
:101860006A077B0709F465C08091C4049091C504A0
:101870009501860174010E94E707882361F18C0CB1
:101880009D1C12C095012C533D4FA9014C0D5D1DAF
:10189000D401F90102C081918D93E417F507D9F7BE
:1018A000E21BF30B8E0E9F1E960140E050E08985EF
:1018B0009A85AB85BC85820F931FA41FB51F8987AE
:1018C0009A87AB87BC876C187D086114710409F096
:1018D0004BCFA20102C04FEF5FEFCA01DF91CF9162
:1018E0001F910F91FF90EF90DF90CF90BF90AF903E
:1018F0009F908F907F906F905F904F903F902F9030
:101900000895AA88BB88CC88DD88E984FA840B8591
:101910001C859A0140E050E0D601C5018E199F094F
:10192000A00BB10B82179307A407B50708F411CFDA
:1019300013CFCB01BA0140E00E947111882309F056
:10194000A1CFC9CFCF92DF92EF92FF920F931F9357
:10195000DF93CF930F92CDB7DEB76C01FC0184818A
:10196000823070F0E184F28403851485C601BE01E3
:101970006F5F7F4F41E050E00E948D0B019769F04F
:1019800020E030E0C9010F90CF91DF911F910F91BE
:10199000FF90EF90DF90CF900895F60181859285BA
:1019A000A385B4854F96A11DB11D81879287A3871A
:1019B000B487F5E016950795F794E794FA95D1F773
:1019C0008E2D8F70282F30E0E5E0220F331FEA952F
:1019D000E1F72C533D4FD6CF0F931F93CF93DF9357
:1019E000EC018B018C81882309F041C0FB018789C0
:1019F0008031B1F482E08C831E8A1F8A188E198E82
:101A0000808D918DA0E0B0E045E0880F991FAA1F5E
:101A1000BB1F4A95D1F78A8B9B8BAC8BBD8B15C0B6
:101A2000803229F583E08C83FB01428D538D648DD8
:101A3000758D4E8B5F8B688F798F9E012E5E3F4F29
:101A4000C8010E945914882391F01B8F0A8F81E0EE
:101A50008B831D821E821F82188619861A861B861A
:101A60001C861D861E861F86188A198A01C080E082
:101A7000DF91CF911F910F9108951F93CF93DF9323
:101A8000EC01142FE62FF0E075E0EE0FFF1F7A95C2
:101A9000E1F7EC53FD4F8385817121F0842F82742F
:101AA00009F054C0698B8091F2019091F301A091EB
:101AB000F401B091F5018D879E87AF87B88B84893B
:101AC0009589A0E0B0E0BC0155274427828D938D15
:101AD000A0E0B0E0482B592B6A2B7B2B4E8B5F8B01
:101AE000688F798F838590E088719070009751F4AA
:101AF000848D958DA68DB78D8A8B9B8BAC8BBD8B82
:101B000081E00CC0409711F59E012E5E3F4F8A8DFB
:101B10009B8D0E9459148823C9F084E08C83812F07
:101B20008F708B831D821E821F82188619861A86EB
:101B30001B861C8616FD02C081E009C0CE0140E074
:101B400050E060E070E00E94C20A01C080E0DF91D6
:101B5000CF911F910895CF93DF93EC019C012B5FF0
:101B60003F4F8A8D9B8D41E050E060E070E00E9425
:101B7000C8148823A1F08E899F89A88DB98D0097FC
:101B8000A105B10559F48D819E81AF81B8858E8BF9
:101B90009F8BA88FB98F8B8180688B8381E0DF91C9
:101BA000CF9108952F923F924F925F927F928F92A2
:101BB0009F92AF92BF92CF92DF92EF92FF920F93DC
:101BC0001F93DF93CF9300D000D000D0CDB7DEB706
:101BD0006C01162F072F5E834D83DC0114968C91C8
:101BE0001497813009F075C113968C9181FF71C1F2
:101BF0008FC1F601428953896489758981859285EF
:101C0000A385B48584179507A607B70731F0C601E9
:101C10000E94A809882309F45CC1812F902F9C01A0
:101C200029012D803E8019C1D6015A96ED91FC9173
:101C30005B97DA01C90119E0B695A7959795879545
:101C40001A95D1F774807A9478227FEF872E71E00D
:101C5000972E82229322772009F050C0811491049C
:101C600009F04CC0D60115964D915D916D917C9116
:101C70001897411551056105710581F456968D91AE
:101C80009D910D90BC91A02D0097A105B10559F132
:101C9000F60185839683A783B08730C0CF019E016C
:101CA0002F5F3F4F0E948D13882319F440E050E0CE
:101CB00016C129813A814B815C81D6015A96ED91FA
:101CC000FC915B978789803129F088EF9FEFAFEF18
:101CD000BFE004C088EF9FEFA0E0B0E0281739070D
:101CE0004A075B0730F0C6010E94AB0D882331F430
:101CF000F0C0F601258336834783508780E092E069
:101D00008819990951018215930508F45C01D601DF
:101D10005A96ED91FC915B971596ED90FD900D9183
:101D20001C9118978EEF9FEFAFEFBFEFE80EF91EF3
:101D30000A1F1B1F058404C0EE0CFF1C001F111F8F
:101D40000A94D2F786859785A089B189E80EF91E95
:101D50000A1F1B1FE70CF11C011D111D90E0A916A5
:101D600092E0B90651F58091F2019091F301A091B2
:101D7000F401B091F5018E159F05A007B10761F43C
:101D80008FEF9FEFAFEFBFEF8093F2019093F301DE
:101D9000A093F401B093F5018091C4049091C5041F
:101DA000B801A70192010E948A07882309F491C013
:101DB000A0E0B2E04A0E5B1E3EC08114910409F51A
:101DC000F601218532854385548582899389A489CA
:101DD000B589281739074A075B0798F00E94121146
:101DE000882309F476C0E092F201F092F3010093A7
:101DF000F4011093F5018091C60481608093C604BC
:101E000008C0C801B70141E00E947111882309F49C
:101E100060C094012C533D4FA9014A0D5B1DD201B6
:101E2000F90102C08D918193E417F507D9F7E21B00
:101E3000F30B4E0E5F1E2A183B08950140E050E060
:101E4000F60181859285A385B485820F931FA41F17
:101E5000B51F81879287A387B487D60119962D91E4
:101E60003D914D915C911C972114310409F0DCCE19
:101E700052968D919D910D90BC91A02D8217930744
:101E8000A407B50748F4F601228B338B448B558B9E
:101E900083818068838311C08091C2029091C302C4
:101EA000892B59F08D819E81892B39F0D6011396AB
:101EB0008C911397806813968C93F601838183FF2E
:101EC00005C0C6010E946E0A882319F04D815E810B
:101ED00006C081E0D60112968C934FEF5FEFCA01E6
:101EE00026960FB6F894DEBF0FBECDBFCF91DF911F
:101EF0001F910F91FF90EF90DF90CF90BF90AF9028
:101F00009F908F907F905F904F903F902F9008957B
:101F100082FD6FCE82CEDB010D900020E9F7119794
:101F2000A61BB70BAD010E94D20D0895DF93CF938E
:101F30000F92CDB7DEB76983BE016F5F7F4F41E07F
:101F400050E00E94D20D0F90CF91DF910895DF9263
:101F5000EF92FF920F931F93CF93DF93EC010E94B8
:101F6000AB0D882309F44EC0EA8DFB8DED80FE8019
:101F70000F8118858EEF9FEFAFEFBFEFE80EF91ED0
:101F80000A1F1B1F058404C0EE0CFF1C001F111F3D
:101F90000A94D2F786859785A089B189E80EF91E43
:101FA0000A1F1B1FD4800894E108F10801091109D8
:101FB0000BC0C801B7016D0D711D811D911D0E94DF
:101FC0004D118823F9F0DA94DD2099F7EA8DFB8D25
:101FD00020E032E040E050E0058404C0220F331FCF
:101FE000441F551F0A94D2F78A899B89AC89BD8901
:101FF000820F931FA41FB51F8A8B9B8BAC8BBD8B4D
:1020000081E001C080E0DF91CF911F910F91FF909F
:10201000EF90DF9008956F927F928F929F92AF9290
:10202000BF92CF92DF92EF92FF920F931F93DF93B5
:10203000CF93CDB7DEB72B970FB6F894DEBF0FBEA8
:10204000CDBF5C016B01822EDC0114968C9188233C
:1020500009F0D2C0CA018E010F5F1F4FB8010E9464
:102060006709882309F4C8C0F601828D938DD501D4
:102070005B969C938E935A971582168217821086D0
:10208000D60119961D921D921D921C921C9799249F
:10209000380141C0C6010E94A20CFC01009709F45E
:1020A000ABC085E016950795F794E7948A95D1F72C
:1020B0001E2D1F708081882311F0853ED1F4992058
:1020C00091F4D50151961C9351972091F2013091D2
:1020D000F3014091F4015091F5011D962D933D932C
:1020E0004D935C9350978081882399F4992493941D
:1020F00021C0C301BF014BE050E00E949600009751
:1021000051F4882D8073803309F476C0C501612FA6
:102110006FC099249394F601E184F28403851485B9
:1021200082899389A489B589E816F9060A071B07ED
:1021300008F4B0CF882D8271823109F05DC09920FA
:1021400041F0C50161E00E94510A8C01009789F4B9
:1021500053C0D60114968C91823009F44DC0C6014B
:102160000E94A70F882309F447C0F501118A04ECE7
:1021700012E080E2D8011D928A95E9F7D801FE01AC
:1021800031968BE001900D928150E1F7E091C2020F
:10219000F091C302309739F0B801625F7F4FC801F8
:1021A0004096099509C081E298E2F801918B808BF5
:1021B00080E098E097878687D80150968D919C9112
:1021C000519753969C938E93529759969C938E93C6
:1021D00058971E968D919C911F9757969C938E931E
:1021E00056970E941211882339F0C501F5016189C3
:1021F000482D0E943D0D01C080E02B960FB6F8944B
:10220000DEBF0FBECDBFCF91DF911F910F91FF9029
:10221000EF90DF90CF90BF90AF909F908F907F9086
:102220006F9008958091C604882399F14091F2013E
:102230005091F3016091F4017091F5018091C40413
:102240009091C50424EC32E00E948A07882319F19A
:102250004091C7045091C8046091C9047091CA04A8
:10226000411551056105710591F08091C40490916B
:10227000C50424EC32E00E948A07882361F01092A2
:10228000C7041092C8041092C9041092CA04109294
:10229000C60481E0089580E00895EF92FF920F93C5
:1022A0001F937B018C010E9412118823A9F0E4EC9A
:1022B000F2E0119284E0E43CF807D9F7E092F201F1
:1022C000F092F3010093F4011093F5018091C6049C
:1022D00081608093C60481E01F910F91FF90EF9081
:1022E0000895DF92EF92FF920F931F937B018C0171
:1022F000D42E8091F2019091F301A091F401B0915C
:10230000F5018E159F05A007B107C1F00E941211BB
:102310008823D9F08091C4049091C504B801A70125
:1023200024EC32E00E948408882379F0E092F201E4
:10233000F092F3010093F4011093F5018091C6042B
:102340008D298093C60481E001C080E01F910F9128
:10235000FF90EF90DF9008958F929F92AF92BF927F
:10236000CF92DF92EF92FF920F931F93CF93DF9361
:102370006C01142F7093C5046093C404442321F4AA
:1023800088249924540140C0453008F01CC160E005
:1023900070E080E090E040E00E947111882309F431
:1023A00012C1C12FD0E02197FE0174E0EE0FFF1F94
:1023B0007A95E1F7EC53FD4FE254FE4F8081EE5BDE
:1023C000F14090E08F779070892B09F0FCC0E653C4
:1023D000FE4F80819181A281B38184369105A10550
:1023E000B10508F4F0C064E0CC0FDD1F6A95E1F799
:1023F000C657DB4F88809980AA80BB8081149104E6
:10240000A104B10409F4DFC0C501B40140E00E9499
:102410007111882309F4D7C08091CF029091D00226
:102420008050924009F0CFC02091D402222309F4B9
:10243000CAC08091D2029091D302892B09F4C3C003
:102440008091D102882309F4BEC0F601228B8091CD
:10245000D1028483158661E070E007C04F5FF6010A
:1024600045874150483008F0AEC0F601458584816B
:1024700090E09B01042E02C0220F331F0A94E2F762
:102480008217930759F72091DA023091DB02211568
:10249000310519F040E050E008C02091E802309189
:1024A000E9024091EA025091EB02F601258336835E
:1024B00047835087E090D202F090D30200E010E012
:1024C000E80CF91C0A1D1B1DE38AF48A058B168B88
:1024D0008091D5029091D602918F808F6091D40225
:1024E00070E080E090E00E94041C6E0D7F1D801F54
:1024F000911FF601628F738F848F958F2091D50283
:102500003091D60255E0220F331F5A95E1F7215042
:102510003E4F232F3327269540E050E0260F371FEC
:10252000481F591F26873787408B518B8091D702D0
:102530009091D802009719F0A0E0B0E008C0809117
:10254000E4029091E502A091E602B091E7028501D4
:102550007401E21AF30A040B150BA8019701280F66
:10256000391F4A1F5B1FF601058404C05695479525
:10257000379527950A94D2F7218732874387548766
:10258000253FFFE03F07F0E04F07F0E05F0710F462
:102590008CE006C0255F3F4F4040504028F480E16A
:1025A000F601878B81E010C08091F0029091F102DA
:1025B000A091F202B091F302F601828F938FA48F63
:1025C000B58F80E2EECF80E0DF91CF911F910F9128
:1025D000FF90EF90DF90CF90BF90AF909F908F9043
:1025E00008954F925F926F927F928F929F92AF92D7
:1025F000BF92CF92DF92EF92FF920F931F93CF93F0
:10260000DF93EC016A017B01280139014230510559
:102610006105710508F46FC089859A85AB85BC8515
:102620000196A11DB11D84179507A607B70708F4E9
:1026300062C02B893C894D895E898F89803129F45C
:1026400099278F2D7E2D6D2D09C0C701B60117E08A
:1026500096958795779567951A95D1F74B015C010B
:10266000820E931EA41EB51E8091F2019091F3017B
:10267000A091F401B091F50188169906AA06BB064F
:1026800039F0C501B40140E00E947111882399F12D
:102690008F89803149F4F601F070EE0FFF1FEC5383
:1026A000FD4F518240820DC0F601EF77F070EE0FC2
:1026B000FF1FEE0FFF1FEC53FD4F408251826282DD
:1026C00073828091C60481608093C6048A898230B7
:1026D00080F08D819E81AF81B885880E991EAA1EDB
:1026E000BB1E8092C7049092C804A092C904B09205
:1026F000CA0481E001C080E0DF91CF911F910F916A
:10270000FF90EF90DF90CF90BF90AF909F908F9011
:102710007F906F905F904F900895CF92DF92EF92ED
:10272000FF920F931F93CF93DF93EC017A018B01FC
:10273000690189859A85AB85BC850196A11DB11D6E
:1027400084179507A607B70708F450C02B893C8962
:102750004D895E898F89803129F49927812F702FC7
:102760006F2D09C0C801B701E7E096958795779569
:102770006795EA95D1F7260F371F481F591F80919B
:10278000F2019091F301A091F401B091F5012817A5
:1027900039074A075B0739F0CA01B90140E00E94D6
:1027A0007111882319F18F89803159F4F701F07084
:1027B000EE0FFF1FEC53FD4F80819181A0E0B0E050
:1027C0000EC0F701EF77F070EE0FFF1FEE0FFF1F47
:1027D000EC53FD4F80819181A281B381BF70F601DE
:1027E00080839183A283B38381E001C080E0DF9185
:1027F000CF911F910F91FF90EF90DF90CF900895B0
:10280000AF92BF92CF92DF92EF92FF920F931F93FE
:10281000DF93CF9300D000D0CDB7DEB76C017A0143
:102820008B0182E090E0A0E0B0E0F601808391832C
:10283000A283B3835E010894A11CB11CC601B80138
:10284000A70195010E948D13882319F1C601B801D3
:10285000A70100E010E020E030E00E94F1128823A0
:10286000C1F0E980FA800B811C81F60187898031F3
:1028700029F088EF9FEFAFEFBFE004C088EF9FEF34
:10288000A0E0B0E0E816F9060A071B07B8F281E0FD
:1028900001C080E00F900F900F900F90CF91DF91CB
:1028A0001F910F91FF90EF90DF90CF90BF90AF906E
:1028B00008954F925F926F927F928F929F92AF9204
:1028C000BF92CF92DF92EF92FF920F931F93DF930D
:1028D000CF9300D000D0CDB7DEB76C0149835A83C7
:1028E0006B837C833901EE24FF2487012E01089439
:1028F000411C511C812CA2E09A2EA12CB12C4981A3
:102900005A816B817C81C60192010E948D138823BC
:1029100051F1D501C401F601058404C0880F991F47
:10292000AA1FBB1F0A94D2F7E80EF91E0A1F1B1F2D
:1029300029813A814B815C818789803129F088EF38
:102940009FEFAFEFBFE004C088EF9FEFA0E0B0E0E3
:10295000281739074A075B0790F2F301E082F182FA
:102960000283138381E00F900F900F900F90CF910F
:10297000DF911F910F91FF90EF90DF90CF90BF906C
:10298000AF909F908F907F906F905F904F90089541
:102990002F923F924F925F926F927F928F929F926F
:1029A000AF92BF92CF92DF92EF92FF920F931F935D
:1029B000DF93CF93CDB7DEB72F970FB6F894DEBF76
:1029C0000FBECDBF1C014A875B876C877D873F8721
:1029D0002E87D9010D911D912D913C910115110565
:1029E0002105310549F0480159010894811C911CC9
:1029F000A11CB11C198610C0FC0180809180A280AE
:102A0000B38019868A859B85AC85BD850197A10514
:102A1000B10511F491E09987D10119968D919D919D
:102A20000D90BC91A02D0196A11DB11D8D839E839B
:102A3000AF83B887750164014424552432018E01A7
:102A40000F5F1F4FF10181859285A385B4854816DC
:102A500059066A067B0608F090C08D819E81AF8181
:102A6000B8858C159D05AE05BF0550F482E0C82ED3
:102A7000D12CE12CF12CB2E08B2E912CA12CB12C7D
:102A8000C101B701A60198010E948D13882309F4A2
:102A900074C089819A81AB81BC81A70196012F5FA7
:102AA0003F4F4F4F5F4F0097A105B10519F0490106
:102AB0005A010DC0281939094A095B098A859B8585
:102AC000AC85BD85281739074A075B0759F008947C
:102AD000411C511C611C711C0894C11CD11CE11CBF
:102AE000F11CB0CFC101A601B7010FEF1FEF2FEF0F
:102AF0003FE00E94F112882399F43FC0260137017C
:102B000008944108510861087108C101B301A2018C
:102B1000970186010E94F112882379F17301620105
:102B20008C149D04AE04BF0448F3AE85BF854D915F
:102B30005D916D917C91411551056105710539F0EB
:102B4000C101950184010E94F1128823B1F0EE8544
:102B5000FF8580829182A282B382F985FF2359F09A
:102B60000894811C911CA11CB11CD1018D929D92D5
:102B7000AD92BC92139781E001C080E02F960FB612
:102B8000F894DEBF0FBECDBFCF91DF911F910F91A3
:102B9000FF90EF90DF90CF90BF90AF909F908F907D
:102BA0007F906F905F904F903F902F9008951F926D
:102BB0000F920FB60F9211242F933F938F939F93F1
:102BC000AF93BF938091CF049091D004A091D10492
:102BD000B091D2043091D3040196A11DB11D232FD1
:102BE0002D5F2D3720F02D570196A11DB11D20938B
:102BF000D3048093CF049093D004A093D104B093D6
:102C0000D2048091CB049091CC04A091CD04B091DA
:102C1000CE040196A11DB11D8093CB049093CC04EA
:102C2000A093CD04B093CE04BF91AF919F918F91AB
:102C30003F912F910F900FBE0F901F9018958FB757
:102C4000F8942091CF043091D0044091D104509158
:102C5000D2048FBFB901CA010895789484B5826007
:102C600084BD84B5816084BD85B5826085BD85B530
:102C7000816085BDEEE6F0E0808181608083E1E8DF
:102C8000F0E0108280818260808380818160808317
:102C9000E0E8F0E0808181608083E1EBF0E080811A
:102CA00084608083E0EBF0E0808181608083EAE7EC
:102CB000F0E0808184608083808182608083808175
:102CC000816080838081806880831092C100089534
:102CD000482F50E0CA0186559F4FFC0124914A5667
:102CE0005F4FFA0184918823C1F0E82FF0E0EE0FE6
:102CF000FF1FE858FF4FA591B491662341F49FB799
:102D0000F8948C91209582238C939FBF08959FB750
:102D1000F8948C91822B8C939FBF0895482F50E09C
:102D2000CA0182549F4FFC012491CA0186559F4FCE
:102D3000FC0134914A565F4FFA019491992309F4AA
:102D400044C0222351F1233071F0243028F4213083
:102D5000A1F0223011F514C02630B1F02730C1F0B7
:102D60002430D9F404C0809180008F7703C0809113
:102D700080008F7D8093800010C084B58F7702C063
:102D800084B58F7D84BD09C08091B0008F7703C06A
:102D90008091B0008F7D8093B000E92FF0E0EE0FBE
:102DA000FF1FEE57FF4FA591B491662341F49FB7E3
:102DB000F8948C91309583238C939FBF08959FB78F
:102DC000F8948C91832B8C939FBF08951F920F9240
:102DD0000FB60F9211242F933F934F938F939F938E
:102DE000EF93FF934091C600E0915405F091550593
:102DF00031969F012F7730703197809156059091D1
:102E000057052817390739F0EC52FB4F40833093B0
:102E1000550520935405FF91EF919F918F914F910C
:102E20003F912F910F900FBE0F901F901895DC01CE
:102E30001296ED91FC911397E058FF4F219131913B
:102E400080819181281B390B2F773070C90108953B
:102E5000DC011296ED91FC911397EE57FF4F208104
:102E6000318192918291E058F0408217930719F4D2
:102E70002FEF3FEF05C0E20FF31F8081282F30E0D6
:102E8000C9010895DC011296ED91FC911397DF01C1
:102E9000AE57BF4F2D913C911197E058FF4F808165
:102EA0009181E058F0408217930719F42FEF3FEF1C
:102EB0000BC0E20FF31F80812F5F3F4F2F773070E1
:102EC0002D933C93282F30E0C9010895DC01129620
:102ED000ED91FC911397EE57FF4F80819181929372
:102EE00082930895FC01A085B18521898C9190E0A1
:102EF000022E02C0959587950A94E2F780FFF6CFDF
:102F00000484F585E02D6083089586E192E0909336
:102F100059058093580584ED94E090935B05809368
:102F20005A0585EC90E090935D0580935C0584ECF8
:102F300090E090935F0580935E0580EC90E0909325
:102F400061058093600581EC90E090936305809328
:102F5000620586EC90E0909365058093640584E0BB
:102F60008093660583E08093670587E0809368051A
:102F700085E08093690581E080936A0508950E9449
:102F80002D160E945D040E949702FDCF0F931F93A0
:102F9000CF93DF938C01EB0109C02196D801ED910D
:102FA000FC910190F081E02DC801099568816623AC
:102FB000A1F7DF91CF911F910F910895EF92FF92AA
:102FC0000F931F93CF93DF938C017B01EA010CC019
:102FD000D7016D917D01D801ED91FC910190F081B7
:102FE000E02DC80109952197209791F7DF91CF91A6
:102FF0001F910F91FF90EF900895DC01ED91FC91EE
:103000000280F381E02D099508952F923F924F920F
:103010005F926F927F928F929F92AF92BF92CF9268
:10302000DF92EF92FF920F931F93DF93CF93CDB771
:10303000DEB7A0970FB6F894DEBF0FBECDBF1C0160
:103040006A017B01411551056105710549F440E3B1
:1030500050E060E070E020E030E00E94BF1856C011
:10306000882499245401422E55246624772401E0B3
:1030700010E00C0F1D1F080D191DC701B601A3019B
:1030800092010E94231CF80160830894811C911C0A
:10309000A11CB11CC701B601A30192010E94231C0F
:1030A000C901DA016C017D01C114D104E104F1040C
:1030B000F1F681E0E82EF12CEC0EFD1EE80CF91C77
:1030C0003E010894611C711CD501C4010197A1093E
:1030D000B1096C01C818D90816C0F601EE0DFF1D24
:1030E00040814A3010F4405D01C0495C552747FDDE
:1030F0005095652F752FC10120E030E00E94BF1868
:103100000894E108F1086E147F0439F7A0960FB611
:10311000F894DEBF0FBECDBFCF91DF911F910F910D
:10312000FF90EF90DF90CF90BF90AF909F908F90E7
:103130007F906F905F904F903F902F900895DC01AB
:103140002115310541F4ED91FC910190F081E02DC4
:10315000642F099508950E9405180895EF92FF9233
:103160000F931F939A017B0100E010E0B801A701C3
:103170000E949F181F910F91FF90EF900895EF927A
:10318000FF920F931F93CF93DF93EC017A018B0192
:103190002115310541F4E881F9810190F081E02D9C
:1031A000642F09951BC02A303105B1F477FF10C098
:1031B0004DE250E060E070E020E030E00E94BF1897
:1031C00010950095F094E094E11CF11C011D111D77
:1031D000CE01B801A7012AE00E940518DF91CF9126
:1031E0001F910F91FF90EF9008959F92AF92BF9221
:1031F000CF92DF92EF92FF920F931F93CF93DF93C3
:10320000EC017A018B01922ECB01BA0120E030E073
:1032100040E050E00E94E91988236CF4CE014DE2B1
:1032200050E060E070E020E030E00E94BF1817FB43
:10323000109517F9109520E030E040E05FE3AA24F4
:103240000BC0CA01B90120E030E040E251E40E9425
:10325000ED199B01AC01A394A91498F3C801B7011F
:103260000E9485195B016C010E945A1A7B018C0136
:10327000CE01B801A7012AE030E00E949F189920F2
:1032800029F0CE016EEE71E00E94FD17C801B70172
:103290000E94861A9B01AC01C601B5010E948419E7
:1032A00022C020E030E040E251E40E943C1B7B0160
:1032B0008C010E94551A5B016C01CC24B7FCC094B0
:1032C000DC2CCE01B601A5012AE030E00E94BF1837
:1032D000C601B5010E94881A9B01AC01C801B70163
:1032E0000E9484199A949920E1F6DF91CF911F9161
:1032F0000F91FF90EF90DF90CF90BF90AF909F9095
:1033000008950E94F51808955058BB27AA270ED09B
:1033100075C166D130F06BD120F031F49F3F11F4CC
:103320001EF45BC10EF4E095E7FB51C1E92F77D1A4
:1033300080F3BA17620773078407950718F071F4D2
:103340009EF58FC10EF4E0950B2EBA2FA02D0B0128
:10335000B90190010C01CA01A0011124FF27591BDA
:1033600099F0593F50F4503E68F11A16F040A22FE0
:10337000232F342F4427585FF3CF46953795279551
:10338000A795F0405395C9F77EF41F16BA0B620B50
:10339000730B840BBAF09150A1F0FF0FBB1F661F97
:1033A000771F881FC2F70EC0BA0F621F731F841FDA
:1033B00048F4879577956795B795F7959E3F08F000
:1033C000B3CF9395880F08F09927EE0F97958795BF
:1033D0000895D9D008F481E008950CD00FC107D129
:1033E00040F0FED030F021F45F3F19F0F0C05111F1
:1033F00039C1F3C014D198F39923C9F35523B1F31C
:10340000951B550BBB27AA2762177307840738F053
:103410009F5F5F4F220F331F441FAA1FA9F333D0B2
:103420000E2E3AF0E0E830D091505040E695001C66
:10343000CAF729D0FE2F27D0660F771F881FBB1F22
:10344000261737074807AB07B0E809F0BB0B802DFC
:10345000BF01FF2793585F4F2AF09E3F510568F048
:10346000B6C000C15F3FECF3983EDCF386957795DC
:103470006795B795F7959F5FC9F7880F911D96954A
:10348000879597F90895E1E0660F771F881FBB1FA6
:10349000621773078407BA0720F0621B730B840B53
:1034A000BA0BEE1F88F7E095089504D06894B11127
:1034B000D9C00895BCD088F09F5790F0B92F9927B4
:1034C000B751A0F0D1F0660F771F881F991F1AF02F
:1034D000BA95C9F712C0B13081F0C3D0B1E00895F8
:1034E000C0C0672F782F8827B85F39F0B93FCCF379
:1034F000869577956795B395D9F73EF49095809525
:10350000709561957F4F8F4F9F4F0895E89409C044
:1035100097FB3EF490958095709561957F4F8F4F06
:103520009F4F9923A9F0F92F96E9BB279395F6951C
:10353000879577956795B795F111F8CFFAF4BB0F9A
:1035400011F460FF1BC06F5F7F4F8F4F9F4F16C0FE
:10355000882311F096E911C0772321F09EE8872F88
:10356000762F05C0662371F096E8862F70E060E044
:103570002AF09A95660F771F881FDAF7880F9695BD
:10358000879597F90895990F0008550FAA0BE0E861
:10359000FEEF16161706E807F907C0F01216130615
:1035A000E407F50798F0621B730B840B950B39F455
:1035B0000A2661F0232B242B252B21F408950A26BB
:1035C00009F4A140A6958FEF811D811D089597F9FB
:1035D0009F6780E870E060E008959FEF80EC0895B9
:1035E00000240A94161617061806090608950024E2
:1035F0000A9412161306140605060895092E03945C
:10360000000C11F4882352F0BB0F40F4BF2B11F4CF
:1036100060FF04C06F5F7F4F8F4F9F4F089557FD2E
:103620009058440F551F59F05F3F71F04795880F30
:1036300097FB991F61F09F3F79F0879508951216C7
:1036400013061406551FF2CF4695F1DF08C0161673
:1036500017061806991FF1CF869571056105089424
:103660000895E894BB2766277727CB0197F908953B
:103670008ADF08F48FEF08950BD0C0CFB1DF28F0B8
:10368000B6DF18F0952309F0A2CFA7CF1124EACF17
:10369000C6DFA0F3959FD1F3950F50E0551F629FB1
:1036A000F001729FBB27F00DB11D639FAA27F00D9B
:1036B000B11DAA1F649F6627B00DA11D661F829FC2
:1036C0002227B00DA11D621F739FB00DA11D621FA7
:1036D000839FA00D611D221F749F3327A00D611DC4
:1036E000231F849F600D211D822F762F6A2F1124A6
:1036F0009F5750408AF0E1F088234AF0EE0FFF1FF9
:10370000BB1F661F771F881F91505040A9F79E3F2F
:10371000510570F05CCFA6CF5F3FECF3983EDCF331
:10372000869577956795B795F795E7959F5FC1F76C
:10373000FE2B880F911D9695879597F9089511F4A2
:103740000EF44BCF4AC073DFD0F39923D9F3CEF3F5
:103750009F57550B87FF51D056959795B0E020F4B1
:10376000660F771F881FBB1F1F930F9300249001C4
:10377000A0018001F001A0E80E0F1F1F0A1E511DBD
:10378000601B710B8009B50B48F4600F711F801D21
:10379000B51F0E1B1F0B0A0A510907C02E0F3F1F32
:1037A0004A1F0E0F1F1F0A1E511D660F771F881F0D
:1037B000BB1FA695F795E795F8F6061717070806B5
:1037C0005B07211D311D411D0F911F91B901842FF0
:1037D0009158880F9695879508959F3F49F091508D
:1037E00028F4869577956795B7959F5F80389F4FAA
:1037F000880F9695879597F9089591505040660FD8
:10380000771F881FD2F70895629FD001739FF00140
:10381000829FE00DF11D649FE00DF11D929FF00D60
:10382000839FF00D749FF00D659FF00D9927729F97
:10383000B00DE11DF91F639FB00DE11DF91FBD0122
:10384000CF0111240895A1E21A2EAA1BBB1BFD0172
:103850000DC0AA1FBB1FEE1FFF1FA217B307E4076F
:10386000F50720F0A21BB30BE40BF50B661F771FC7
:10387000881F991F1A9469F76095709580959095A7
:103880009B01AC01BD01CF010895EE0FFF1F059014
:0A389000F491E02D0994F894FFCFA5
:10389A00646174616C6F672E747874005265666532
:1038AA0072656E636520566F6C7461676520697313
:1038BA003A202000205620417665726167653B20D8
:1038CA0000205620524D533B20002073616D706CCE
:1038DA00657320666F7220563B2000206D696C6C00
:1038EA00697365636F6E647320666F7220563B203E
:1038FA000020746F74616C41766572616765206639
:10390A006F7220563B200020746F74616C524D53C5
:10391A0020666F7220563B20002041204176657256
:10392A006167653B2000204120524D533B20002017
:10393A0073616D706C657320666F7220413B200065
:10394A00206D696C6C697365636F6E647320666F52
:10395A007220413B200020746F74616C417665725D
:10396A0061676520666F7220413B200020746F7486
:10397A00616C524D5320666F7220413B20002E002D
:10398A00FFFFFFFFFFFF00000000F204ED04E80460
:10399A007F049A04B504950400000000960F8B0F6B
:1039AA00DE17000000007217C617DE171717421736
:0439BA00281766174D
:00000001FF
